:020000040800F2
:1000000000500020193A0008E1380008E3380008E1
:10001000E5380008E7380008E9380008000000006B
:10002000000000000000000000000000EB380008A5
:10003000ED38000800000000EF380008F138000833
:10004000613A0008613A0008613A0008613A000824
:10005000613A0008613A0008613A0008613A000814
:10006000613A0008613A0008613A0008613A000804
:10007000613A0008613A0008613A0008613A0008F4
:10008000613A0008613A0008613A0008613A0008E4
:10009000F5380008613A0008613A0008613A000842
:1000A000613A000801390008613A0008613A000825
:1000B000613A0008613A00082D390008613A0008E9
:1000C000613A0008613A0008613A0008613A0008A4
:1000D000613A0008613A0008613A0008613A000894
:1000E000613A0008613A0008613A00080000000027
:1000F0000000000000000000000000000000000000
:0C01000000000000000000005FF808F1A3
:10010C0010B5054C237833B9044B13B10448AFF345
:10011C0000800123237010BD20010020000000008E
:10012C00E43E000808B5034B1BB103490348AFF389
:10013C00008008BD0000000024010020E43E0008FF
:10014C00034613F8012B002AFBD1181A013870470B
:10015C007047704790F83D30012B20D1022380F876
:10016C003D300368DA6842F00102DA600D4A9342CE
:10017C000AD0B3F1804F07D0A2F59432934203D04A
:10018C0002F58062934204D19A6802F00702062AB3
:10019C0003D01A6842F001021A6000207047012057
:1001AC00704700BF002C0140704770477047704784
:1001BC00036870B5DD681E690446B1070DD5AA0742
:1001CC000BD56FF002021A61012202779B699B0723
:1001DC0069D0FFF7EAFF00232377710710D56A0770
:1001EC000ED56FF00402236820461A610222227792
:1001FC009B6913F4407F5CD0FFF7D7FF0023237774
:10020C0033070FD528070DD56FF008022368204659
:10021C001A6104222277DB69990750D0FFF7C5FFDA
:10022C0000232377F20610D5EB060ED56FF01002E3
:10023C00236820461A6108222277DB6913F4407F79
:10024C0043D0FFF7B2FF00232377F00708D5E90767
:10025C0006D56FF00102236820461A6103F02EFBCD
:10026C00320608D52B0606D56FF08002236820468F
:10027C001A6100F090F8700608D5690606D56FF083
:10028C004002236820461A61FFF791FFB20622D57F
:10029C00AB0620D56FF0200223682046BDE87040E5
:1002AC001A6100F077B8FFF77FFF2046FFF77EFF5B
:1002BC0091E7FFF779FF2046FFF778FF9EE7FFF7FE
:1002CC0073FF2046FFF772FFAAE7FFF76DFF20468A
:1002DC00FFF76CFFB7E770BD174A036890420AD06E
:1002EC00B0F1804F07D0A2F59432904203D002F5C2
:1002FC008062904207D14A6823F070031343CA68A6
:10030C0023F4407313434A6923F0800313430360BF
:10031C008B68C3620B688362074B984204BF0B69FE
:10032C000363012343610369DB0742BF036923F0C5
:10033C0001030361704700BF002C014010B5044657
:10034C0030B390F83D3003F0FF021BB980F83C202D
:10035C00FFF7FFFE0223206884F83D30211DFFF7D4
:10036C00BBFF0123002084F8463084F83E3084F82B
:10037C003F3084F8403084F8413084F8423084F8BF
:10038C00433084F8443084F8453084F83D3010BD57
:10039C000120FCE7704770472DE9F04F0D680446CB
:1003AC00C5F30F2595FAA5F20326B2FA82F20427BB
:1003BC004FF0011C40F2011E35FA02F001D1BDE8EC
:1003CC00F08F012393402B426AD0072A88BFA2F1F9
:1003DC000803D1F804A08ABF0CFA03F30EFA02F357
:1003EC0043F08063BAF1080F0ED1E0684FEA13288E
:1003FC0098FAA8F9B9FA89F920EA0808086900FA04
:10040C0009F048EA0000E0604FEA136893FAA3F998
:10041C00B9FA89F993FAA3FB0F20BBFA8BFB4FEACD
:10042C00890900FA09F954F808004FEA8B0B20EA05
:10043C0009090AFA0BFA49EA0A0A44F808A04868BA
:10044C0020F0080001282BD193FAA3F9B9FA89F905
:10045C0093FAA3F0B0FA80F04FEA890906FA09F989
:10046C002AEA09094FEA800A886800FA0AF049EA80
:10047C00000044F8080093FAA3F9B9FA89F993FA41
:10048C00A3F3B3FA83F34FEA890907FA09F920EACF
:10049C000909C8689B00984049EA000044F8080024
:1004AC00013289E7F8B50446E0B190F8913203F0D7
:1004BC00FF021BB980F8902202F078FE032384F827
:1004CC00913200232546637155F8040B00F0E5FECC
:1004DC0095E80E00206800F0D0FE014628B10223FA
:1004EC0084F8913201252846F8BD206800F0DFFE23
:1004FC000028F4D102460127267904F11003C1B279
:10050C008E4203F1280318D800210A4604F5A8737B
:10051C00C8B2864203F128031BD895E80E00206868
:10052C0000F0C7FE05460028D9D10123607320686E
:10053C0084F8913201F081F9D5E743E9062203F8FA
:10054C00277C03F8281C03F8252C43F8102C0130C9
:10055C00D5E743E9062203F8272C03F8280C03F807
:10056C00252C43F8102C0131D2E738B5044610B9CC
:10057C000125284638BD032380F89132006801F02C
:10058C0049F905460028F3D1204602F02FFE84F8E5
:10059C009152EEE738B590F890320446012B10D00A
:1005AC00012580F89052006800F06EFE2946204626
:1005BC0002F043FF206801F03EF9002084F890021D
:1005CC0038BD0220FCE710B590F890320446012BA0
:1005DC0010D0012380F89032006800F05EFE0021FC
:1005EC00204602F02AFF206801F027F9002084F849
:1005FC00900210BD0220FCE710B590F89022044642
:10060C00012A0AD00122417380F89022006801F07F
:10061C000CF9002084F8900210BD0220FCE70000C9
:10062C002DE9F04F044685B0006801F008F910F48C
:10063C00004500F04F842825C64E2068B0F84430A1
:10064C001F0402D405B0BDE8F08FB0F8443013F0AD
:10065C000F0799B240F0C08011F0100126D1038829
:10066C009BB2334043F400430380B0F85030227CFB
:10067C009BB203EBC20300EB4303B3F80434626A8E
:10068C00C3F309031A44E3622046626202F0CFFD11
:10069C00637B002BD1D0A26A2168002ACDD1637B69
:1006AC0043F08003A1F84C306273C6E70788BBB2F5
:1006BC0017F4006721D0B0F8503094F850219BB259
:1006CC0003EBC20300EB4303B3F80C34B4F856212C
:1006DC00C3F30903C4F86C3104F5267101F0FAFA7E
:1006EC0022682046138823F070031B051B0D43F072
:1006FC008003138002F08CFD9FE719049DD50388BD
:10070C0023F070031B051B0D43F080030380B0F82E
:10071C00503094F850219BB203EBC20300EB43031F
:10072C00B3F80C34C3F30903C4F86C318BB1D4F8AF
:10073C00641171B1B4F8562101F0CCFAD4F86431DB
:10074C00D4F86C21394613442046C4F8643102F0C5
:10075C0065FD21680A8893B212053FF56EAF03F46C
:10076C004053B3F5405F3FF468AFB1F8502001F24D
:10077C000C4092B2835AC3F309038352D4F860310C
:10078C003E2B1DD95F09DB06835A08BF07F1FF37E3
:10079C009BB243EA87236FEA43436FEA53439BB20E
:1007AC0083520B8823F4804323F070031B041B0C2F
:1007BC0083F4405343F4004343F080030B803CE745
:1007CC000BB9835AE7E75F08DB07835A48BF013749
:1007DC009BB243EA8723E2E730F8273019041FFA6B
:1007EC0083F840F1F68030F8273005FB074123F001
:1007FC0070031B051B0D43F0800320F8273091F884
:10080C005C3100F5806EBBB9B0F8503091F85021D6
:10081C009BB2063303EBC2033EF81390C9F30909EC
:10082C00B9F1000F00F0BA804B46B1F85621D1F85F
:10083C00641101F04FFAB1E091F8533191F8502165
:10084C00022B40F08980B0F850904FEAC20B1FFA8F
:10085C0089F918F4804AD1F86831D94408F0400C71
:10086C003CD009F102093EF81990C9F309099945E0
:10087C0013D90023C1F8683130F8223023F48043B7
:10088C0023F070031B041B0C83F4005343F400434C
:10089C0043F0800320F8223005E0A3EB0903C1F8F4
:1008AC006831002BE8D0BCF1000F0DD030F82230AD
:1008BC0023F4E04323F070031B041B0C43F40043AC
:1008CC0043F0C00320F82230B9F1000F66D0282184
:1008DC0001FB07414B46B1F85821A8E709F106097D
:1008EC003EF81990C9F30909994512D9C1F868A1C4
:1008FC0030F8223023F4804323F070031B041B0CCC
:10090C0083F4005343F4004343F0800320F8223077
:10091C0005E0A3EB0903C1F86831002BE8D0BCF16A
:10092C00000F0DD130F8223023F4E04323F0700394
:10093C001B041B0C43F4004343F0C00320F822308B
:10094C00B9F1000F2AD0282101FB07414B46B1F821
:10095C005A216CE70F8FFFFF30F8223023F4E0436D
:10096C0023F070031B041B0C43F4004343F0C0033F
:10097C0020F8223091F8503130F82320DB0012F4AB
:10098C00804FB0F8502092B254D0023213443EF84B
:10099C001390C9F30909B9F1000F9BD105FB07F1BD
:1009AC006318D3F86C214A44C3F86C21D3F8642142
:1009BC004A44C3F86421D3F868211AB1D3F86031E2
:1009CC00994541D205FB0743204693F8501102F09C
:1009DC0025FC18F0800F20683FF42FAE30F827303C
:1009EC0005FB07FC9BB2334043F4004320F827304F
:1009FC0004EB0C03DA7C012A56D1002107FB0552CB
:100A0C00A1501A7F92B318F040085A7C36D012BB12
:100A1C00B0F850201B7C92B21B0100F20440104431
:100A2C001A5AC2F309021A521A5A92B242F40042EA
:100A3C001A521BE0063213443EF81390C9F309090D
:100A4C00B9F1000FAAD081E701F5A8712068214403
:100A5C0000F00BFFBDE7012A08D1B0F850201B7C39
:100A6C0092B200F204401B0110441952282303FBDC
:100A7C000743197C204602F0DAFBDEE53AB9B0F800
:100A8C0050201B7C92B21B0100F20C40C7E7012ADC
:100A9C00ECD1B0F850201B7C92B200F20C401B0140
:100AAC00104423F80080E1E7197C18F4807E9A6AE0
:100ABC004FEAC10A00F580691BD1B0F85070BFB283
:100ACC005744023739F81770C7F30907974202D316
:100ADC00C3F828E0CEE7D21B9A625A6A0CF11001D7
:100AEC003A445A62DA6A21443A44DA6200F0BDFEB2
:100AFC00A3E5B0F850C018F0400E1FFA8CFCD4449B
:100B0C0008F4804800F0F4800CF1020C39F81CC099
:100B1C001FFA88F8CCF3090C94452CBF0022A2EBE9
:100B2C000C029A62002A5BD1282303FB07435B7CEF
:100B3C00002B41D1B0F8502000F2044C92B20B01C2
:100B4C0094443CF80320C2F309022CF803203CF82F
:100B5C0003206FEA42426FEA524292B22CF8032011
:100B6C00B0F8502000F20C4092B21044C25AC2F3BA
:100B7C000902C252C25A6FEA42426FEA524292B220
:100B8C00C252204602F053FBB8F1000F00F0F48083
:100B9C00282303FB07432268197C32F8213023F405
:100BAC00E04323F070031B041B0C43F4404343F05D
:100BBC00800322F82130DFE0012BE2D1B0F850E0C5
:100BCC0000F2044C1FFA8EFEF4440B012CF80320A7
:100BDC00B0F850C000F20C401FFA8CFC6044CFE718
:100BEC00B8F1000F0DD030F8212022F4E04222F0B1
:100BFC0070021204120C42F4404242F0800220F8BF
:100C0C0021204FF0280808FB074898F83420012AC7
:100C1C0040F0B280D8F8242002EB0C0EC8F824E087
:100C2C00DA6A6244DA62D8F83030D8F8202093427D
:100C3C0035D39B1AC8F83030282303FB074393F8AD
:100C4C0011C093B2BCF1000F45D1B0F8508000F246
:100C5C00044C1FFA88F8C44409013CF801803E2A70
:100C6C00C8F309082CF8018025D94FEA5218D2068E
:100C7C003CF8012008BF08F1FF3892B242EA882202
:100C8C006FEA42426FEA524292B22CF801202822BB
:100C9C0002FB0742128B714600F0D7FD6CE01BB9CA
:100CAC00624688F83430C7E7002288F83420C8F848
:100CBC0030201A46C0E712B93CF80120E0E74FEAB1
:100CCC005208D2073CF8012048BF08F1010892B243
:100CDC0042EA8822D8E7BCF1010FD8D1B0F850C055
:100CEC0000F204421FFA8CFC624409015352CEE715
:100CFC000CF1060C39F81CC01FFA88F8CCF3090C5F
:100D0C0094458CBF7246A2EB0C029A62002A5DD10C
:100D1C00282303FB07435B7C002B43D1B0F8502006
:100D2C0000F2044C92B20B0194443CF80320C2F341
:100D3C0009022CF803203CF803206FEA42426FEAC8
:100D4C00524292B22CF80320B0F8502000F20C4022
:100D5C0092B21044C25AC2F30902C252C25A6FEA8A
:100D6C0042426FEA524292B2C252204602F05FFAFD
:100D7C00B8F1000F3FF40CAF282303FB07432268A4
:100D8C00197C32F8213023F4E04323F040031B0498
:100D9C001B0C83F0300343F4004343F0800322F830
:100DAC0021304AE4012BE0D1B0F850E000F2044CC1
:100DBC001FFA8EFEF4440B012CF80320B0F850C03F
:100DCC0000F20C401FFA8CFC6044CDE7B8F1000F28
:100DDC000DD130F8212022F4E04222F070021204EE
:100DEC00120C42F4404242F0800220F821204FF0D5
:100DFC00280808FB074898F83420012ABCD1D8F8F9
:100E0C00242002EB0C0EC8F824E0DA6A6244DA62A1
:100E1C00D8F83030D8F82020934232D39B1AC8F837
:100E2C003030282303FB074393F811C093B2BCF175
:100E3C00000F42D1B0F8508000F20C4C1FFA88F829
:100E4C00C44409013CF801803E2AC8F309082CF877
:100E5C00018022D94FEA5218D2063CF8012008BF73
:100E6C0008F1FF3892B242EA88226FEA42426FEAF6
:100E7C00524292B22CF80120282202FB0742528BDC
:100E8C0009E71BB9624688F83430CAE70022C8F873
:100E9C00302088F834201A46C3E712B93CF80120F8
:100EAC00E3E74FEA5208D2073CF8012048BF08F1AB
:100EBC00010892B242EA8822DBE7BCF1010FDBD1D8
:100ECC00B0F8502000F20C4C92B294440A012CF869
:100EDC000230D1E7460512D522682046B2F84430DC
:100EEC0023F480631B041B0CA2F8443002F0ABF912
:100EFC002946204605B0BDE8F04FFFF77DBB410405
:100F0C000AD52268B2F8443023F480431B041B0C2E
:100F1C00A2F84430FFF796BB820405D52268B2F8DC
:100F2C00443023F40053F1E7C30419D5226820465A
:100F3C00B2F8403023F004031B041B0CA2F8403021
:100F4C00B2F8403023F008031B041B0CA2F840300D
:100F5C0002F09CF92268B2F8443023F48053D5E7B0
:100F6C00070548D568462368064619461A4603F114
:100F7C00200532F8047B954226F8027BF9D1B3F8B0
:100F8C00402092B242F00102A3F84020B3F8402076
:100F9C0022F001021204120CA3F84020B3F84420F2
:100FAC005605FBD5B3F8442022F480621204120CCF
:100FBC00A3F8442030F8022B21F8042B8D42F9D1F0
:100FCC00B3F84020204692B242F00802A3F8402029
:100FDC00B3F8442022F400621204120CA3F844204B
:100FEC00B3F8402092B242F00402A3F8402002F081
:100FFC003DF9FFF727BB82050DD522682046B2F8D4
:10100C00443023F400731B041B0CA2F8443002F090
:10101C0016F9FFF717BBC3057FF514AB2268B2F8BE
:10102C00443023F4807371E770B52824054601F031
:10103C000700444311F0800F14BF04F1100104F5B4
:10104C00A87105EB040615BF01240024747486F8FE
:10105C00514114BF49194919022BCB7008BF002309
:10106C00087008BF0B710A6195F89032012B09D0FA
:10107C000123286885F8903200F030F9002085F8BB
:10108C00900270BD0220FCE7282301F007025343B5
:10109C0011F0800F10B5044618BF03F1100118446D
:1010AC000BBF03F5A8710123002309190ABF091905
:1010BC00437480F851310A7094F89032012B09D0A6
:1010CC000123206884F8903200F068FA002084F83C
:1010DC00900210BD0220FCE770B52824002601F018
:1010EC0007014C43051985F8501104F5A87101440A
:1010FC00C5E95923C5F86C6185F85161006800F0A9
:10110C00B4FB304670BD282301F0070103FB01003E
:10111C00D0F86C01704770B5282501F007014D43DC
:10112C0044190026C4E909230122217405F1100198
:10113C00014484F834202363E6626274006800F092
:10114C0094FB304670BD38B5037901F00705AB420E
:10115C0004462AD311F0800F4FF028031CD0012233
:10116C006B4303F11001034401445A7401230D70C5
:10117C008B7094F890229A4219D0206884F890329F
:10118C0000F0DFFA25B9206804F5267100F05BFB4E
:10119C00002084F8900238BD00224B4303F5A8715F
:1011AC000344014483F85121E0E70120F3E70220D6
:1011BC00F1E738B5027901F00F039A42044626D3C1
:1011CC00282301F00702534311F0800F14BF03F1E1
:1011DC00100103F5A87118444FF0000515BF012349
:1011EC0000230919091914BF437480F851318D700B
:1011FC000A7094F89032012B0BD00123206884F8EC
:10120C00903200F0BEFA284684F8905238BD012086
:10121C00FCE70220FAE710B590F890320446012B57
:10122C0010D0012380F890320B06006807D501F02E
:10123C00070100F04FF8002084F8900210BD00F078
:10124C004BF8F8E70220F9E710B5282411F0800FCD
:10125C001BBF01F0070104FB010004FB010010306F
:10126C0008BF00F5A87099B21AB90273C1800020AA
:10127C0010BD012283600273F9E784B004A800E971
:10128C000E00002004B0704703464FF43F4200208C
:10129C00A3F84400A3F840207047B0F8403023F482
:1012AC007C535B045B0CA0F840300020704700209E
:1012BC0070471FB5044604A800E90E000020012366
:1012CC00A4F84030A4F84000A4F84400A4F850005E
:1012DC0004B010BD0020704700207047F0B50A78AC
:1012EC00CD7830F82240034624F4EC4424F070040A
:1012FC002404240C032D03D8DFE805F041494745AD
:10130C00012048F28006344323F8224033F822406F
:10131C009F4FA4B23C401443344323F822400C7B2F
:10132C0003EB021C002C40F08D80CC884E786408B6
:10133C0064007EB3B3F8501089B26144A1F8004444
:10134C0033F82210490609D533F8221089B23940F6
:10135C0041F4004141F0C00123F8221033F822106F
:10136C008C4C89B2012D01EA040101D081F02001DD
:10137C0041F4004141F0800123F822104CE0284652
:10138C0044F40074BDE744F4C0640020B9E744F4AD
:10139C008064FAE7B3F850500969ADB26544A5F81A
:1013AC000844B3F850403E29A4B26444B4F80C5439
:1013BC00C5F30905A4F80C542FD94D09CE06B4F881
:1013CC000C1408BF05F1FF3589B241EA85216FEA9B
:1013DC0041416FEA514189B2A4F80C1433F8221040
:1013EC004F040DD533F8221021F4E04121F07001A7
:1013FC000904090C41F4404141F0800123F822100A
:10140C00654CC2B91A8892B2224082F4405242F41E
:10141C00004242F080021A80F0BD11B9B4F80C14ED
:10142C00D5E74D08C907B4F80C1448BF013589B28B
:10143C0041EA8521CFE733F8221089B2214081F4AB
:10144C00005195E7022D33F822405BD1A4B23C4009
:10145C0044F4014444F0800423F82240B3F8504093
:10146C000E89A4B2760864447600A4F800644E8910
:10147C00B3F850407608A4B264447600A4F808642B
:10148C004978002948D133F822104E040DD533F891
:10149C00221021F4E04121F070010904090C41F4FF
:1014AC00404141F0800123F8221033F822104D0600
:1014BC000DD533F8221021F4E04121F0700109041C
:1014CC00090C41F4004141F0C00123F8221048F20C
:1014DC00800433F8221021F4804121F070010904BA
:1014EC00090C81F44051214323F8221033F82210C7
:1014FC0021F4E04121F040010904090C0C4323F8CC
:10150C00224089E724F4E24424F070042404240CDF
:10151C00264323F82260A1E733F822104C040DD5A2
:10152C0033F8221021F4E04121F070010904090C78
:10153C0041F4404141F0800123F8221033F822108D
:10154C0049060DD533F8221021F4E04121F0700149
:10155C000904090C41F4004141F0C00123F82210A8
:10156C0033F822100B4C89B22140012D18BF81F0A9
:10157C00200141F4004141F0800123F8221033F89E
:10158C00221021F4804121F070010904090CEFE6CE
:10159C008F8FFFFFBF8FFFFF8FBFFFFF4A780B7846
:1015AC00097BD9BB0AB330F8232051060DD530F88E
:1015BC00232022F4E04222F070021204120C42F4B6
:1015CC00004242F0C00220F8232030F8232022F4FD
:1015DC00E04222F040021204120C42F4004242F0AB
:1015EC00800220F823200020704730F8232052047A
:1015FC000DD530F8232022F4E04222F070021204C0
:10160C00120C42F4404242F0800220F8232030F8C1
:10161C00232022F4804222F07002DCE7002A4AD117
:10162C0030F8232051040DD530F8232022F4E04269
:10163C0022F070021204120C42F4404242F080027A
:10164C0020F8232030F8232052060DD530F8232023
:10165C0022F4E04222F070021204120C42F4004216
:10166C0042F0C00220F8232048F2800130F82320F9
:10167C0022F4E04222F070021204120C42F40042F6
:10168C0042F0C00220F8232030F8232022F48042BC
:10169C0022F070021204120C0A4320F8232030F8B6
:1016AC00232022F4E04222F040021204120C1143D7
:1016BC0020F8231097E730F8232051040DD530F88B
:1016CC00232022F4E04222F070021204120C42F4A5
:1016DC00404242F0800220F8232030F823205206AA
:1016EC000DD530F8232022F4E04222F070021204CF
:1016FC00120C42F4004242F0C00220F8232048F2BF
:10170C00800130F8232022F4E04222F0700212040F
:10171C00120C42F4404242F0800220F8232030F8B0
:10172C00232022F4E04222F040021204120C0A435D
:10173C0020F8232030F8232022F4804222F070027B
:10174C00B3E74B780A788BB130F8223023F4E043BE
:10175C0023F040031B041B0C83F0100343F40043E1
:10176C0043F0800320F822300020704730F82230FC
:10177C0023F4804323F070031B041B0C83F480536D
:10178C00ECE70B7B3BBB4B780A7833B330F8223059
:10179C005B060DD530F8223023F4E04323F07003C0
:1017AC001B041B0C43F4004343F0C00320F822300D
:1017BC00CB78012B0FD030F8223023F4E04323F008
:1017CC0040031B041B0C83F0200343F4004343F041
:1017DC00800320F822300020704730F822305B0460
:1017EC000DD530F8223023F4E04323F070031B04B2
:1017FC001B0C43F4404343F0800320F8223030F8B4
:10180C00223023F4804323F070031B041B0C83F45D
:10181C004053DAE701220346A0F8402000200322BF
:10182C00A3F84400A3F84020704711B98023A0F816
:10183C004C30002070470020704700207047B0F8F3
:10184C00440080B270470020704700EB4200013327
:10185C0000F580605B0800EB8303834200D1704786
:10186C0031F8022B20F8042BF7E72DE9F0474B78E1
:10187C000446012B0D460A7B40F01881D1F81090DC
:10188C008F6949694F4528BF4F460ABBBFB2EA88EA
:10189C003B46FFF7DAFFB4F85000297880B204F227
:1018AC000442090102448F522A7834F8223023F47E
:1018BC00E04323F040031B041B0C83F03003002097
:1018CC0043F4004343F0800324F82230BDE8F08752
:1018DC00EB7895F800E0022B2E6A4FEA0E1C40F0D4
:1018EC00D080B14530F82E2080F0B48022F4E04254
:1018FC0022F070021204120C42F4014242F08002F7
:10190C0020F82E2030F82E80B0F850E0F61B18F09E
:10191C0040082E6201EB070ABBB21FFA8EFE4ED0B6
:10192C0000F20C42724422F80C306A89FFF78DFFEA
:10193C00B14536BFF31B00233E466A782B62C5F8CF
:10194C0014A0B3B27ABBB4F85020287892B204F247
:10195C00044100011144425A3E2EC2F30902425284
:10196C0014D9425A7709F60608BF07F1FF3792B22D
:10197C0042EA87226FEA42426FEA524292B24252E4
:10198C002A8951462046FFF760FF8DE70EB9425A6F
:10199C00F0E7F207425A4FEA560748BF013792B2B6
:1019AC0042EA8722EAE7012AEAD1B4F85000297802
:1019BC0080B204F20442090102448B52E0E700F2C7
:1019CC000442724422F80C302A89FFF73EFFB145DD
:1019DC0036BFF31B43463E466A782B62C5F814A00B
:1019EC00B3B25ABBB4F85020287892B204F20C412E
:1019FC0000011144425A3E2EC2F30902425210D940
:101A0C00425A7709F60608BF07F1FF3792B242EA4D
:101A1C0087226FEA42426FEA524292B242526A897C
:101A2C00AFE70EB9425AF4E7F207425A4FEA5607AB
:101A3C0048BF013792B242EA8722EEE7012AEED183
:101A4C00B4F85000297880B204F20C420901024427
:101A5C008B52E4E722F4E24222F070021204120CE0
:101A6C0042F4004242F0800220F82E20B0F85030B0
:101A7C0000F204429BB21A44B3B222F80C302A8909
:101A8C0081E7F61B30F82E202E62B0F85060BBB206
:101A9C005706B6B206D500F20C42324422F80C308E
:101AAC006A8970E700F204423244E6E7002A3BD12F
:101ABC008B690969B0F850008B4284BF5A1A0B46E7
:101ACC002978AA6180B204F20C4209010244885AB6
:101ADC003E2BC0F3090088521AD95809DE068B5ADE
:101AEC0008BF00F1FF309BB243EA80236FEA434307
:101AFC006FEA53439BB28B522A7834F8223023F48A
:101B0C00804323F070031B041B0C83F44053D6E674
:101B1C000BB98B5AEAE75808DB078B5A48BF0130E0
:101B2C009BB243EA8023E5E7CA78022A70D1002BE6
:101B3C0038D1B0F850200B7892B200F204401B015F
:101B4C001044C25AC2F30902C2520A693E2A46D94B
:101B5C00C15A5609D70608BF06F1FF3689B241EAC9
:101B6C0086216FEA41416FEA514189B2C152B4F802
:101B7C00500004F20C4180B20144C85A3E2AC0F312
:101B8C000900C85238D95009D706CA5A08BF00F103
:101B9C00FF3092B242EA80226FEA42426FEA52422E
:101BAC0092B2CA52EB69002BA6D044F240032A78B9
:101BBC0034F8221003EA01008B4301D000289BD19A
:101BCC0034F8223023F4E04323F070031B041B0C85
:101BDC0043F4004343F0C00324F822308CE70AB9E5
:101BEC00C15ABEE7D107C15A4FEA520648BF013667
:101BFC0089B241EA8621B8E70AB9CA5ACCE750083B
:101C0C00D607CA5A48BF013092B242EA8022C7E7CF
:101C1C00012A5DD18A6909698A4294BF0020501A51
:101C2C00A86188BF0A46002B7FF466AFB4F8501049
:101C3C002B7889B204F204401B010844C15A3E2A95
:101C4C00C1F30901C1522BD9D106C15A4FEA521620
:101C5C0008BF06F1FF3689B241EA86216FEA41419D
:101C6C006FEA514189B2C152B4F8500004F20C41F0
:101C7C0080B20144C85A3E2AC0F30900C8521BD98D
:101C8C005009D606CA5A08BF00F1FF3092B242EA98
:101C9C0080226FEA42426FEA524292B2CA522BE75A
:101CAC000AB9C15ADAE7C15A5608D70748BF0136F4
:101CBC0089B241EA8621D5E70AB9CA5AE9E7500840
:101CCC00D207CA5A48BF013092B242EA8022E4E7F6
:101CDC000120FBE500EB4200F0B500F580605D08EB
:101CEC000C4607462E46023436B9DB0744BF30F8A3
:101CFC00253001F81530F0BD37F8042B013E92B2B7
:101D0C0004F8022C120A04F8012CECE7014B1860C1
:101D1C00704700BF000000207047000010B54FF066
:101D2C00FF320024044B1A611C61DA60DC60FFF79F
:101D3C00F3FF204610BD00BF00100240074A08B553
:101D4C001368032043F01003136000F069F80F20B0
:101D5C0001F00EFE01F0EAFD002008BD002002405B
:101D6C00034A044B11681B780B441360704700BF87
:101D7C003C01002004000020014B1868704700BF94
:101D8C003C01002038B50446FFF7F6FF0546631CFE
:101D9C001EBF044B1B78E418FFF7EEFF431BA34256
:101DAC00FAD338BD04000020044B054A5B68C3F32A
:101DBC000223D35C034A1068D840704700100240DD
:101DCC00073F0008000000200F2303600B4B5A68EC
:101DDC0002F0030242605A6802F0F00282605A6814
:101DEC0002F4E062C2605B68DB0803F4E063036149
:101DFC00034B1B6803F007030B6070470010024095
:101E0C00002002400AB1016170470904FBE7C36876
:101E1C0001EA030221EA030141EA02410161704730
:101E2C0007490302CA6803F4E06322F4E062120477
:101E3C00120C134343F0BF6343F40033CB60704781
:101E4C0000ED00E0154B30B5DC68C4F30224C4F19E
:101E5C000703251D042B28BF0423062D4FF0FF3547
:101E6C0094BF0024033C05FA03F321EA0303A540C5
:101E7C0022EA0502A340002843EA0203ACBF00F1AA
:101E8C006040074A4FEA0313DBB2ABBF00F5614079
:101E9C0000F00F0080F80033135430BD00ED00E06B
:101EAC0014ED00E0002807DB01234109034A00F090
:101EBC001F00834042F82130704700BF00E100E072
:101ECC0000280CDB01220649430900F01F00824068
:101EDC00203341F82320BFF34F8FBFF36F8F704730
:101EEC0000E100E0114AD36813F0100305D010494B
:101EFC00CB6943F00203CB611023D268500706D59F
:101F0C000B4943F00403CA6942F00102CA61074A53
:101F1C00D169C90708D50648C16941F00401C161FE
:101F2C00D16921F00101D161D360704700200240DA
:101F3C0040010020064B186910F0800007D0054ABC
:101F4C005A6002F188325A601869C0F3C0107047A9
:101F5C000020024023016745034A0020136943F027
:101F6C0080031361704700BF0020024070B5054626
:101F7C00FFF702FF0646114CE368D80712D4E3685A
:101F8C00990644BF2023E360E368DA0606D4E369CC
:101F9C00DB0703D4E06810F0040007D0FFF7A2FFC2
:101FAC00012003E06B1CE7D00DB9032070BDFFF7D7
:101FBC00E3FE801BA842DFD9F7E700BF00200240F8
:101FCC002DE9F84FDFF894A01F469AF81830054613
:101FDC00012B884691463FD001234CF250308AF8B1
:101FEC001830FFF7C3FF90BB012D03D0022D14BF97
:101FFC000425022500263346DFF864B03401C4F111
:10200C002001A4F1200207FA01F129FA04F4CAF81C
:10201C001C300C4327FA02F21443DBF81020A4B254
:10202C0042F00102CBF810204CF2503028F8164048
:10203C00FFF79CFFDBF8102022F00102CBF81020F8
:10204C0028B90136F2B295424FF00003D6D80023DE
:10205C008AF81830BDE8F88F0220FBE74001002019
:10206C00002002400022064BDA61064B1A6942F04E
:10207C0002021A6158611A6942F040021A617047F3
:10208C0040010020002002402DE9F041264F05467A
:10209C003B7E8846012B44D001243C7603684CF2ED
:1020AC005030022B1AD1FFF761FF20B10120002321
:1020BC003B76BDE8F0811D4CF86123694CF2503041
:1020CC0043F004032361236943F040032361FFF7CA
:1020DC004DFF236923F004032361E8E7FFF746FF74
:1020EC000028E3D14FF0FF33C8F800302046AE682B
:1020FC000E4CD5E9023203EB8223B342D7D93046DA
:10210C00FFF7B0FF4CF25030FFF730FF236923F09C
:10211C000203236110B1C8F80060C8E706F58066B9
:10212C00E7E70220C5E700BF400100200020024085
:10213C00134A036890420AD0B0F1804F07D0A2F541
:10214C009432904203D002F58062904207D14A68E3
:10215C0023F070031343CA6823F4407313430360E2
:10216C008B68C3620B888362054B984204BF0B6972
:10217C000363436943F0010343610020704700BFD0
:10218C00002C014008B580B1D0F8B43213B1002353
:10219C00C0F8B43209B1C0F8B0120123027080F853
:1021AC009C3201F077F8002008BD0220FCE70123E7
:1021BC0010B5044680F89C32D0F8B43201795B68D3
:1021CC009847204601F0B0F8204601F09BF800201B
:1021DC0010BD19B1C0F8B41200207047022070472E
:1021EC0008B501F098F8002008BD08B5D0F8B43255
:1021FC0033B11B689847003818BF0120400008BD58
:10220C000220FCE708B5D0F8B4325B689847002090
:10221C0008BD38B500F52A750446284600F006FBC3
:10222C00012394F8A812C4F89432B4F8AE32C4F86E
:10223C00983201F01F03012B08D0022B0BD07BB975
:10224C002946204600F0FAF8002038BD29462046E1
:10225C0000F03CFAF8E72946204600F05BFAF3E779
:10226C00204601F0800101F086F8EDE770B50446D8
:10227C00164639BBD0F89422032A1CD1D0E9585207
:10228C0095420BD9AD1AAA423146C0F860518CBFA9
:10229C00AAB292B200F011FB002070BDD0F8B4329B
:1022AC001B6923B190F89C22032A00D19847204641
:1022BC0000F00BFBF0E7052AEED1C4F8941201F004
:1022CC005AF8E9E7D0F8B4329B692BB190F89C220C
:1022DC00032A01D19847DFE70220DEE7F8B5044670
:1022EC0013460F46002949D1D0F89422022A3AD13C
:1022FC00D0E90856B54211D9AD1B19460562AAB2F0
:10230C0000F0D3FA3B461A461946204601F068F80D
:10231C0094F8A032012B2DD00020F8BDC369B3FB7B
:10232C00F6F506FB153565B99E420AD8D0F8982209
:10233C00934206D22A4600F0B8FA2B46C4F89852BB
:10234C00E1E7D4F8B432DB682BB194F89C22032A71
:10235C0001D1204698478021204601F00CF82046F8
:10236C0000F0BEFAD4E732F00403D1D1802101F0A1
:10237C0002F8CDE7002384F8A032CDE7D0F8B432D0
:10238C005B692BB190F89C22032A01D19847C3E7D3
:10239C000220C2E7002270B50446012540261146F2
:1023AC00402300F0CAFF3346802100222046C4F8A7
:1023BC005851C4F8646100F0C0FF0021D4F8B83261
:1023CC00A561666284F89C52C4F894126160C4F8EA
:1023DC00A41223B1D4F8B43220465B68984700208D
:1023EC0070BD01740020704790F89C3280F89D32CB
:1023FC00042380F89C320020704790F89C32042B08
:10240C0004BF90F89D3280F89C320020704708B5CC
:10241C0090F89C22032A04D1D0F8B432DB6903B1C2
:10242C009847002008BD10B50446802100F0A3FF9A
:10243C002046BDE81040002100F09DBF37B50B7859
:10244C00044603F06003202B0D4606D0402B04D02D
:10245C0063B12046FFF7E7FF05E0D4F8B432294614
:10246C0020469B689847002003B030BD4B78092B61
:10247C00EFD801A252F823F087260008BD260008E9
:10248C005F240008AF2600085F240008AD25000873
:10249C00AD2400085F24000857260008EF2500082B
:1024AC000023ADF806304B881A0A013A062AD0D818
:1024BC0001A151F822F000BFE12400080525000815
:1024CC001F2500085F2400085F240008632500080E
:1024DC0079250008D0F8B0321B68207C0DF106017C
:1024EC009847BDF80620EB88002A54D0002B49D120
:1024FC00204600F0EAF9B6E7027CD0F8B43232B9E3
:10250C009B6A0DF10600984702234370E9E7DB6AEA
:10251C00F7E7DBB2052B9CD8DFE803F003090D11BC
:10252C001519D0F8B0325B68002BD6D191E7D0F8F2
:10253C00B0329B68F8E7D0F8B032DB68F4E7D0F83B
:10254C00B0321B69F0E7D0F8B0325B69ECE7D0F839
:10255C00B0329B69E8E7037C002B7FF47AAFD0F8AC
:10256C00B4320DF106005B6B9847BAE7037C002B85
:10257C007FF46FAFD0F8B4320DF106001B6B9847A7
:10258C000723C2E79A4228BF1A4601462046ADF8F7
:10259C00062000F07DF9EB88002B7FF464AFA7E7F1
:1025AC008B88002B7FF455AFCB88002B7FF451AF79
:1025BC004D887F2D3FF64DAF90F89C32032B3FF4A6
:1025CC0048AFEDB2294680F89E5200F0F7FE204647
:1025DC0000F07BF91DB1022384F89C3243E7012300
:1025EC00FAE78978384D012929703FF632AF90F817
:1025FC009C32022B08D0032B15D0FFF714FF20467A
:10260C002978FFF7FFFD2EE700293FF471AF012178
:10261C000323416080F89C322046FFF7E6FD022838
:10262C007FF466AF15E731B90223416080F89C3224
:10263C00FFF7E8FD5CE7416801293FF459AFC9B2E7
:10264C00FFF7E0FD29786160E6E7CA88012A7FF48C
:10265C0000AF90F89C32022B0AD8002B3FF4F9AE55
:10266C000146002341F8083F204600F011F9FAE634
:10267C00032B7FF4EEAE011DF6E790F89C32013B84
:10268C00022B3FF6E6AECA88022A7FF4E2AED0F8FF
:10269C00A4320146002B0CBF0123032341F80C3F4D
:1026AC00E2E74B88012B7FF4DEAEC4F8A4321FE7BF
:1026BC0090F89C32013B022B3FF6CBAE4B88012BA2
:1026CC007FF4D1AE0023F0E76001002038B50B7821
:1026DC00044603F060025B060D4601D5402A15D175
:1026EC0094F89C32013B022B10D82B79012B0DD87E
:1026FC00D4F8B43229469B6820469847EB881BB91E
:10270C0010B9204600F0E1F8002038BD2046FFF754
:10271C008AFEF9E738B50A78044602F06002202AEE
:10272C000B468D8806D0402A04D05AB12046FFF7BC
:10273C007AFE05E0D4F8B4221946204692689047F8
:10274C00002038BD5A78E9B2012A35D0032A21D0AD
:10275C00002AEBD190F89C32022B44D0032BE5D10C
:10276C00142201F00F0315F0800F02FB03034BD072
:10277C009B69002BDAD0142501F07F0303FB055570
:10278C00802905444BD0204600F007FE00284BD092
:10279C00012345E090F89C22022A1BD0032AC5D1C4
:1027AC005A882AB94A0603D0DB880BB900F0E3FD3E
:1027BC00204600F08AF8C3E790F89C22022A09D040
:1027CC00032AB3D15B88002BBAD14D06F0D000F0B0
:1027DC00DBFDEDE74B06A9D000F0CDFD80212046B6
:1027EC0000F0C9FDACE74A06A0D12B064FF0000360
:1027FC004FF002024CBF00F1140100F5AA710B60FE
:10280C00204600F045F89BE7D3F85831002B8DD0CB
:10281C00142505FB010505F5AA750029B3D1002384
:10282C002B6002222946EBE72860FAE70B7803704D
:10283C004B7843704B8843808B888380CB88C380D4
:10284C00704710B50446802100F095FD2046BDE888
:10285C001040002100F08FBD70B50D4616460446A1
:10286C0070B1FDF76DFCC3B201335B0033802B708C
:10287C00032300206B700223013C14F8011F01B9E3
:10288C0070BD5A1CE954D2B20233DBB2A854F4E73F
:10289C001346022210B5C0E90733C0F894220A4649
:1028AC00002100F094FD002010BD08B513460A4627
:1028BC00002100F08CFD002008BD08B513460A4627
:1028CC00002100F08DFD002008BD08B50423C0F8E0
:1028DC00943200231A46194600F079FD002008BDF9
:1028EC0008B50523C0F8943200231A46194600F0A7
:1028FC0077FD002008BD00002023038000487047AE
:10290C005800002020230380004870473800002026
:10291C002023038000487047180000200A230380FE
:10292C00004870470C00002010B5037C0446EBB93E
:10293C004FF400730222012100F0FFFC0123C4F8C4
:10294C006C314FF4007302228121204600F0F5FC1B
:10295C0001234FF41B70E36200F050FDC4F8B80281
:10296C0070B1204600F0FDF8002010BD402302227B
:10297C00012100F0E2FC0123C4F86C314023E2E7B2
:10298C000220F2E738B504460025012100F0E1FCF5
:10299C0081212046C4F86C5100F0DBFC2046E56236
:1029AC0000F007F9D4F8B80218B100F045FDC4F8EE
:1029BC00B852002038BD00000023F7B5ADF8063042
:1029CC000B78044613F060020D46D0F8B8622CD098
:1029DC00202A04D14A78FE2A07D0FF2A18D0204694
:1029EC002946FFF72EFF02201DE04A88002AF6D167
:1029FC00CF88012FF3D11A06F1D5D0F8BC329B69E0
:102A0C0098473A46314630602046FFF741FF09E0CF
:102A1C004A88002AE3D1CA88002AE0D11B06DED4FA
:102A2C0000F0BCF8002003B0F0BD4B780B2BD6D8CF
:102A3C0001A252F823F000BF752A0008A12A000851
:102A4C00EB290008EB290008EB290008EB2900080A
:102A5C00EB290008EB290008EB290008EB290008FA
:102A6C00852A0008932A000890F89C32032BB6D1D3
:102A7C0002220DF10601C7E790F89C32032BAED170
:102A8C000122311DC0E790F89C32032BA7D18B7823
:102A9C007360C7E7097900F065FC2046297900F0DE
:102AAC0058FC95F90420AB88002A4FF0140203F06F
:102ABC000F0302FB03434FF0000212DA9A61237CEE
:102ACC006BB94FF4007302228121204600F035FCD3
:102ADC000123E3622046297900F014F9A2E7402390
:102AEC00F1E7C3F85821237C53B94FF40073022249
:102AFC000121204600F021FC0123C4F86C31E9E7E8
:102B0C004023F4E708B500F075F8002008BD08B5BF
:102B1C0000F08CF8002008BD09B1C0F8BC120020F0
:102B2C00704770B5D0F8B852044695F818323BB9D6
:102B3C00D5F8143223B16B7A13B9012100F01BFCC8
:102B4C008121204600F017FC6B7A022B08D120461D
:102B5C0005F503721F23BDE87040012100F040BC55
:102B6C0070BD70B50446D0F8B85200202881A5F885
:102B7C005C02D4F8BC321B6898470121204600F057
:102B8C00F1FB8121204600F0EDFB204605F5037298
:102B9C001F23BDE87040012100F022BC4FF480736C
:102BAC00D0F8B822012113811F2302F5037200F023
:102BBC0017BC0022D0F8B8321A72704770B50C4BA3
:102BCC00D0F8B8420546C4F82C32002384F83812E9
:102BDC00237204F50B720D23812100F0F8FB2846BB
:102BEC0004F503721F23BDE87040012100F0F8BB0F
:102BFC005553425310B5D0F8B81204460B7A022B39
:102C0C0007D0033B012B0FD80021BDE81040FFF784
:102C1C00D5BF01F21B2291F8191200F099F8002887
:102C2C0002DA01212046F0E710BD000070B5D0F8A3
:102C3C00B8420546237A13B1012B58D070BDD4F895
:102C4C0010320121C4F83032D4F81432C4F83432C2
:102C5C0000F0CFFB1F2894F819120BD1D4F80C22DA
:102C6C00274B9A4206D1012904D894F81A32013B19
:102C7C000F2B0BD920230522284600F07DFA0223C6
:102C8C0063722846BDE87040FFF74BBF284604F23C
:102C9C001B2200F05DF80028237A07DA052BF0D10F
:102CAC0001212846BDE87040FFF788BF013B022B8D
:102CBC00C4D96389CBB104F10C021C46D5F8B81207
:102CCC00D1F81402984238BF83B2D1F83402001BF9
:102CDC00C1F83402002081F838020420087228461A
:102CEC00BDE87040812100F072BB1946D9E794F819
:102CFC00191204F21B2200F02BF800289EDACFE701
:102D0C005553424310B5D0F8B842637A022B05D123
:102D1C00812100F030FB0023637210BD0A06FCD544
:102D2C00012BFAD0BDE810400121FFF747BF90F806
:102D3C005D3200EBC30282F83C1200210133DBB29E
:102D4C00042B08BF0B4682F8401280F85D327047A6
:102D5C002DE9F743137804462F2B0F46164643D81C
:102D6C00192B0ED8032B62D0122B00F08B80002B6A
:102D7C0042D0D4F8B8020521FFF7D9FF4FF0FF304D
:102D8C0052E01A3B152BF4D801A252F823F000BFE5
:102D9C00E32E0008D92E00087F2D00087F2D000897
:102DAC00D92E00087F2D00087F2D00087F2D0008EC
:102DBC007F2D0008F72E00087F2D0008412F0008FA
:102DCC007F2D00087F2D0008792F00087F2D00082B
:102DDC00593000087F2D00087F2D00087F2D00083A
:102DEC007F2D0008633100085A2BC2D10822D0F87D
:102DFC00B832B7495A8173E0D0F8B852D5F81432CA
:102E0C0013B105212846DDE0D0F8BC3208469B689A
:102E1C00984738B10221D4F8B802FFF788FF052390
:102E2C002B7200E06881002003B0BDE8F083D0F87D
:102E3C00B8421122002104F10D0001F013F87023A7
:102E4C0023730C2394F85D22E37494F85C329A4259
:102E5C0011D004EBC3020133DBB2042B08BF0023F7
:102E6C0092F83C12A17392F84112217692F840220A
:102E7C0084F85C326276122363813379122BD2D8B8
:102E8C006381D0E77378D0F8B822DB0709D5072324
:102E9C005381904B1968D16099889B7911829374F6
:102EAC00C1E7D0F8BC323079D969242303FB071170
:102EBC000B790533834228BF03465381002BB2D0D4
:102ECC00013B9BB2CC5CD0180473F7E70022D0F81E
:102EDC00B8325A81A7E70822D0F8B8327E495A8115
:102EEC000A68DA604A681A619DE70023D0F8B85284
:102EFC000DF10202EB602B616B61D0F8BC3201A9C1
:102F0C0038465B68984708B102217EE00823EB73D2
:102F1C00019B013B1A0E2A741A0C6A74EB741A0A80
:102F2C00BDF80230AA745BBA0222EB820C23AA828F
:102F3C006B8178E7D0E9AE5338465B6805F25E22C8
:102F4C0005F5187198470028DED1D5F86032288233
:102F5C00013B1A0E2A731A0C6A73EB731A0AB5F832
:102F6C005E32AA735BBA6B820823E1E7D0F8B852E1
:102F7C002B7A53BB95F91832002BBFF642AFD0F821
:102F8C00BC3208469B6898470028BDD1D6F8022071
:102F9C00D4F8B80212BAC5F86422B6F80730D0F8E3
:102FAC0060125BBA9BB21A448A42C5F8683208D8E0
:102FBC0002222A72B5F85E225343D5F814229A42A3
:102FCC0003D00521FFF7B3FE2DE74FF400736B819F
:102FDC00D4F8B852D4F8BC22B5F85E32D5F8686291
:102FEC0005F10C085E43B6F5007F28BF4FF4007660
:102FFC00B6FBF3F3D2F8109041463846D5F864226C
:10300C009BB2C847002803DA0421D4F8B802D9E7E8
:10301C004246B3B28121204600F0D9F9B5F85E22C0
:10302C00D5F86432B6FBF2F21344C5F86432D5F825
:10303C0068329B1AD5F83422C5F86832921BC5F851
:10304C003422002B7FF4EFAE0323E9E6D0F8B8521C
:10305C002B7A002B42D195F91832002BFFF6D1AE0A
:10306C00D0F8BC3208469B68984700287FF44CAFD8
:10307C00D4F8BC323846DB68984700287FF444AF5C
:10308C00D6F80230D4F8B8021BBAC5F86432B6F8D8
:10309C000720D0F8601252BA92B213448B42C5F892
:1030AC0068228ED8B5F85E325343D5F81422934279
:1030BC0087D1B3F5007F4FF0010128BF4FF40073A7
:1030CC0029729BB205F10C02204600F089F9AAE6A0
:1030DC000F3F00081F3F0008173F0008B5F85E328D
:1030EC00D5F86862D0F8BC225E43B6F5007F28BFE5
:1030FC004FF40076B6FBF3F305F10C08D2F81490FC
:10310C0041463846D5F864229BB2C8470028FFF6E2
:10311C007BAFB5F85E32D5F86422B6FBF3F10A4406
:10312C00C5F86422D5F86822511AD5F83422C5F8AE
:10313C006812921BC5F8342219B92046FFF73EFDE0
:10314C0071E64B43B3F5007F28BF4FF40073424642
:10315C0001219BB2B8E77378D0F8B80213F00203E0
:10316C007FF42FAFD0E999210A44D0F860128A423B
:10317C003FF627AF438156E6D0F8B81291F85D328E
:10318C0001EBC30080F83C2200220133DBB2042B9C
:10319C0008BF134680F8402281F85D32704718B1A1
:1031AC0002280CBF012002207047000007B50E4B0F
:1031BC0002689A4215D103F5DA33DA69142042F425
:1031CC000002DA610022DB69114603F4000301936B
:1031DC00019BFEF737FE142003B05DF804EBFEF7FD
:1031EC0061BE03B05DF804FB005C00400268064B56
:1031FC009A4207D1054A1420D36923F40003D36102
:10320C00FEF75EBE704700BF005C0040001002403D
:10321C0000F52671D0F8D402FEF7FBBF282303FB80
:10322C000103D0F8D402D3F86421FFF71FB8282388
:10323C0003FB0103D0F8D4025A6AFFF74FB8D0F859
:10324C00D402FFF7E4B810B583790446022B01D001
:10325C0000F03EFBD4F8D4020121FFF7C2F8D4F8F9
:10326C00D402BDE81040FFF795B8000010B5044635
:10327C00D0F8D402FFF7B8F8A37A23B1024A136945
:10328C0043F00603136110BD00ED00E0D0F8D4024A
:10329C00FFF7B3B810B5194B04461948036008235F
:1032AC000371022383710023C0F8D442C4F8C00216
:1032BC0043810373FDF7F6F808B100F009FB002217
:1032CC0018231146D4F8C002FDF7BEFF5823002284
:1032DC008021D4F8C002FDF7B7FF9823002281218A
:1032EC00D4F8C002FDF7B0FFD82300220121D4F896
:1032FC00C002FDF7A9FF002010BD00BF005C00401C
:10330C006809002008B5D0F8C002FDF72EF9BDE819
:10331C000840FFF744BF08B5D0F8C002FDF73AF9F2
:10332C00BDE80840FFF73BBF08B5D0F8C002FDF779
:10333C004AF9BDE80840FFF732BF10B51446D0F883
:10334C00C0021A462346FDF76FFEBDE81040FFF79A
:10335C0026BF08B5D0F8C002FDF796FEBDE80840C0
:10336C00FFF71DBF08B5D0F8C002FDF754FFBDE84C
:10337C000840FFF714BF08B5D0F8C002FDF7E3FE14
:10338C00BDE80840FFF70BBF08B5D0F8C002FDF749
:10339C0010FFBDE80840FFF702BF282211F0800F94
:1033AC00D0F8C0321BBF01F07F0102FB013302FBDE
:1033BC000133987C08BF93F85201704708B5D0F8D8
:1033CC00C002FDF719F9BDE80840FFF7E8BE08B5E3
:1033DC00D0F8C002FDF79FFEBDE80840FFF7DFBE46
:1033EC0008B5D0F8C002FDF777FEBDE80840FFF73E
:1033FC00D6BED0F8C002FDF786BE000003460C49CD
:10340C00820718BF20F003030A6818BF043310B5F5
:10341C0003EB8204B4F5006F98BF064C4FEA8200B0
:10342C0097BF02EB9302002000190A6010BD00BF89
:10343C0064010020680100207047704708B5002225
:10344C000E490F48FEF79EFE08B100F041FA0D49F7
:10345C000B48FEF7BEFE08B100F03AFA0A490848DC
:10346C00FFF75AFB08B100F033FA0548FEF7B8FE37
:10347C0018B1BDE8084000F02BBA08BDE4000020EC
:10348C00400C00207800002000010020122301488D
:10349C000B807047D0000020042301480B8070473C
:1034AC00CC000020002370B51E464D1C040FB0F15B
:1034BC00204F34BF3034373401F8134005F8136013
:1034CC000133DCB2A2424FEA0010EFD870BD00000D
:1034DC001A2310B50B800A4BD3F8E807D3F8F02762
:1034EC0080180AD0D3F8EC4706490822FFF7DAFF18
:1034FC00042220461031FFF7D5FF034810BD00BF52
:10350C0000F0FF1FB2000020B000002010B5044CEA
:10351C000A4604482146FFF79FF9204610BD00BF1C
:10352C00040F0020263F000810B5044C0A4604483E
:10353C002146FFF791F9204610BD00BF040F002073
:10354C00293F000810B5044C0A4604482146FFF7F1
:10355C0083F9204610BD00BF040F00202B3F00084C
:10356C0010B5044C0A4604482146FFF775F920466D
:10357C0010BD00BF040F00202D3F000860230B601E
:10358C004FF4007300201380704700207047002018
:10359C007047F8B50E4617461D460024AC4201D1C3
:1035AC000020F8BD06EB4421381900F0C5FB0134AE
:1035BC00F4E7F8B50E4617461D460024AC4201D17F
:1035CC000020F8BD06EB4421381900F08FFB0134C4
:1035DC00F4E708B500F0F8FA002008BD00207047A9
:1035EC00054B82B09A6902439A619B69034001932F
:1035FC00019B02B0704700BF00100240244A10B576
:10360C00136823F0070343F002031360136803F0FD
:10361C000703022BFAD11F4C236843F48033236039
:10362C0023689A03FCD5636823F47C1343F4E813F2
:10363C006360236843F08073236023689B01FCD58F
:10364C00636823F0F0036360636823F4E06343F47E
:10365C0080636360636823F460536360636823F082
:10366C00030343F002036360636803F00C03082B4D
:10367C00FAD10948FEF74AFB0F2000F079F908B19E
:10368C0072B6FEE7636823F48003636010BD00BF6D
:10369C00002002400010024000A24A04F0B587B09E
:1036AC00FEF74CFBFFF7AAFF2020FFF799FF102035
:1036BC00FFF796FF0820FFF793FF0420FFF790FF1A
:1036CC0040F6480370480024436103F1816303F51D
:1036DC00804301250193022301A9CDE90253CDE9D1
:1036EC000444FCF759FE0823684A01A96848CDE94F
:1036FC0001230595FCF750FE042366496448CDE987
:10370C0001130DEB0301FCF747FEFFF797FE4FF497
:10371C000060ADF80640FFF763FF4FF000725E4BA0
:10372C0001A9DB685D4B83F819431A6048F69F4387
:10373C00CDE90245CDE90444594CADF8043020469E
:10374C00FEF7F6FC236823F080032360A36823F4C0
:10375C00804323F00703A360636823F07003636066
:10376C00A36823F08003A36000F08AF9044618B123
:10377C00284600F0E3F92C46454B9B6813F0400FAC
:10378C0008BF012400F086F908B1002C57D0444B37
:10379C001A6842F001021A60DA6842F00102DA603B
:1037AC00404E414F384D3378002BFCD03B68002BFA
:1037BC00F9D0FEF7E1FA3B68C01AB0F5FA6FF2D90E
:1037CC0000F068F90122044640F6080100283BD0BD
:1037DC002D48FEF717FB6420FEF7D4FA002240F6C2
:1037EC0008012948FEF70EFB0A24274D44F240013C
:1037FC002846FEF70CFB3220FEF7C4FA013CF5D14B
:10380C00204600F09BF9294B1888294B80B2198867
:10381C0089B200F077F92748FEF7C9FC4FF4FA702B
:10382C00FEF7B0FABFF34F8F1B49234BCA6802F463
:10383C00E0621343CB60BFF34F8F00BFFDE7FEF791
:10384C006DFA00F08FF9ABE72846FEF7DBFA64203F
:10385C00FEF798FA224640F608012846FEF7D2FAFF
:10386C006420FEF78FFA012240F608012846FEF785
:10387C00C9FA6420FEF786FA224640F6080128466B
:10388C00FEF7C0FA34708EE700100140C040C0044F
:10389C00000C01400100010400ED00E000E100E03B
:1038AC00002C01408C110020901100208A11002066
:1038BC0088110020400C00200400FA050268034B1C
:1038CC009A4201D1FEF74CBA704700BF0008004085
:1038DC0072B6FEE7FEE7FEE7FEE7FEE7FEE770479F
:1038EC0070477047704700000148FCF799BE00BF55
:1038FC0068090020084B1A69D2070CD56FF0010239
:10390C0006491A61CB681A04DB4302F4800203F007
:10391C00400313430B617047002C01400010014021
:10392C000148FCF745BC00BF041100200E4B82B0CF
:10393C009A6942F001029A619A6902F001020092BE
:10394C00009ADA6942F08052DA61DB69074A03F0C7
:10395C0080530193019B536823F0E06343F00073A1
:10396C00536002B0704700BF0010024000000140DD
:10397C0070B5214B88B0DA69054642F00402DA6171
:10398C00DB6901A903F00403029303A8029BFEF771
:10399C001BFA069B4BBBFEF707FA184E184B33600D
:1039AC0040F2E733F360174BB0FBF3F3013B73606A
:1039BC00002330463361B360B361FCF7BFFC0446AF
:1039CC0080B93046FCF7C6FB044658B91E20FEF7FA
:1039DC0069FA0F2D0DD8224629461E20FEF732FA21
:1039EC00094B1D60204608B070BDFEF7DDF94000A4
:1039FC00D3E70124F6E700BF0010024004110020B9
:103A0C000008004040420F0008000020FCF7A0FB1B
:103A1C000B480C490C4A002302E0D458C450043320
:103A2C00C4188C42F9D3094A094C002301E01360F5
:103A3C000432A242FBD300F01DFAFFF72FFE7047B1
:103A4C000000002020010020843F000820010020FD
:103A5C0094190020FEE730B5002587B00446019587
:103A6C00FEF768FA012301A902A8049405930295B4
:103A7C00FEF70AFB0446FEF76FFA204607B030BD8E
:103A8C00034B1878A0F1AA0358425841704700BF65
:103A9C0000FC0008184B194AD3F8001870B5914275
:103AAC0028D1D3F80848D3F80C58631EB3F53C4F13
:103ABC0020D24FF0FF330022114EA2F10C0103294A
:103ACC0091BF002102F1006101F59041097888BF96
:103ADC00C9B24B40082143F300003040013980EA61
:103AEC005303F8D101329442E7D1D843431B5842D7
:103AFC00584170BD0020FCE700400008544C554D67
:103B0C002083B8ED38B540EA0145FEF713FA0023DF
:103B1C0001200849AAB2FEF753FA044630B903460D
:103B2C00054901202A0CFEF74BFA0446FEF714FA5D
:103B3C00204638BD04FC000806FC0008074B70B595
:103B4C0005460748D3F8046CFFF785FF04461DB102
:103B5C00310CB0B2FFF7D6FF204670BD00F0000864
:103B6C0000FC0008134B10B5134AD3F80049134955
:103B7C00D3F8043913600B6072B64FF0E0220023C7
:103B8C004FF0FF301361536193619A0002F1604270
:103B9C00013302F56142082BC2F88000C2F88001A3
:103BAC00F3D1074B074A9A6084F308880B6898474F
:103BBC00FEE700BF00400008501100204C1100200F
:103BCC0000ED00E00049000830B50025414C85B0FF
:103BDC004FF400620021204600F044F93E4B3F4A6E
:103BEC001D60EB2323703C2363709023A370136838
:103BFC00F021C4F8033053680222C4F807300123C3
:103C0C006373A373A3752376A376292384F82630D4
:103C1C00782384F82730562384F8283034232273F1
:103C2C002274102284F8293012236274602284F8E2
:103C3C002A302B4BE2741A686175E572E573A57432
:103C4C002575E5756576E576C4F82B205A6804F57C
:103C5C008060C4F82F201A899B7AA4F83320214A5B
:103C6C0084F83530136884F80012C4F83630536881
:103C7C004FF40072C4F83A30552384F8FE316FF0DB
:103C8C00550384F8FF31FF23A11884F8013284F81E
:103C9C00023200F013F9144A01AB106851688DF828
:103CAC000E5003C331238DF80B3043F22E03ADF8C5
:103CBC000C3001AB03CB1A88EBB284F80A3608231C
:103CCC00C4F80006C4F80416A4F8082684F80B36C9
:103CDC0005B030BD94110020541100202F3F000876
:103CEC00383F0008443F0008FC3E000810B404466E
:103CFC00032C084607D84FF400720D4901EB442100
:103D0C0010BC00F0DBB85F2C0CD80A4B1B684BB115
:103D1C00A34207D8C3F58023243323444FF4007205
:103D2C005902EDE74FF40072002110BC00F09AB874
:103D3C0094110020541100202DE9F043032804466F
:103D4C000D4687B00BD83D484FF4007200EB442071
:103D5C0000F0B4F8032C53D007B0BDE8F0835F2813
:103D6C00FAD8374B1A6822B90968364A914208BF0B
:103D7C0018601B68002BEFD0A342EDD8C3F580234D
:103D8C00314E2433234406EA43265F0206F178437E
:103D9C00A3F59043B3F5404F16D2DFF8B0909C0AD0
:103DAC0019F80480B8F1000F0ED1FEF7C3F8049691
:103DBC00012601A902A8CDE901880596FEF764F950
:103DCC00FEF7CAF809F80460FEF7B4F82C4605F5BE
:103DDC0000767F1B23786278391943EA022201208E
:103DEC0000230234FEF7ECF8A642F3D1FEF7B4F848
:103DFC00FDF7C2FF0122164B1860164B1A70ABE789
:103E0C002B461548154C05F500711A784AB1E52A70
:103E1C0007D0DA7A12F0180F01BFDA8902801A8AF9
:103E2C00228020338B42F0D14FF4007229460C488B
:103E3C0007B0BDE8F04300F041B800BF941100207A
:103E4C0054110020544C554D00FCFFFF581100201C
:103E5C00901100208C1100208A1100208811002064
:103E6C009417002003460244934200D1704703F894
:103E7C00011BF9E770B500260C4D0D4C641BA4100A
:103E8C00A64209D100F028F800260A4D0A4C641B02
:103E9C00A410A64205D170BD55F8043B98470136D5
:103EAC00EEE755F8043B98470136F2E77C3F0008F3
:103EBC007C3F00087C3F0008803F00080A44914288
:103ECC0000F1FF3300D1704710B511F8014B91424E
:103EDC0003F8014FF9D110BDF8B500BFF8BC08BC10
:103EEC009E467047F8B500BFF8BC08BC9E467047AC
:103EFC0056626F6F74205600000000000000000135
:103F0C000203040006000000000000000000000096
:103F1C00000000000000030080835354004D534305
:103F2C000049004D53444F53352E3000424F4F54EF
:103F3C004C4F414445522000464154313220202000
:103F4C0000008002021F0000005649534F4C2020F5
:103F5C00204669726D776172652055706C6F616473
:083F6C0020312E30300000006E
:083F7400D8C1FF7F010000002D
:043F7C003101000807
:043F80000D01000827
:103F840000127A0001000000100000000A0600027E
:103F9400000000400100000009072000010104C0E6
:103FA400320904000002080650050705810240009A
:103FB400000705010240000009022000010104C0BD
:103FC400320904000002080650050705810240007A
:103FD400000705010240000009022000010104C09D
:103FE4003209040000020806500507058102000298
:103FF4000007050102000200352900089129000884
:10400400C52900080000000000000000112B000872
:104014001B2B00080000000000000000000000004E
:1040240005290008112900081D290008292900086C
:104034001A0300000000000000000000000000005F
:104044000000000000000000000000000403090458
:10405400120100020000004083042A5700020102FA
:104064000301000099340008A5340008193500083C
:1040740035350008DD340008513500086D35000879
:10408400DF3500088935000897350008E935000850
:10409400BF3500089F3500089B3500084D3F0008D8
:0400000508003A199C
:00000001FF
