:020000040800F2
:10480000544C554D00000001747C0000608EB96965
:104810000000000000000000000000000000000098
:104820000000000000000000000000000000000088
:104830000000000000000000000000000000000078
:104840000000000000000000000000000000000068
:104850000000000000000000000000000000000058
:104860000000000000000000000000000000000048
:104870000000000000000000000000000000000038
:104880000000000000000000000000000000000028
:104890000000000000000000000000000000000018
:1048A0000000000000000000000000000000000008
:1048B00000000000000000000000000000000000F8
:1048C00000000000000000000000000000000000E8
:1048D00000000000000000000000000000000000D8
:1048E00000000000000000000000000000000000C8
:1048F00000000000000000000000000000000000B8
:1049000000500020B5BC00086DBA000871BA00085C
:10491000B9BA0008BDBA0008C1BA0008000000001A
:1049200000000000000000000000000041A400089A
:10493000C5BA000800000000D1A4000851A000087A
:10494000FDBC0008FDBC0008FDBC0008FDBC000863
:10495000FDBC0008FDBC0008FDBC0008FDBC000853
:10496000FDBC0008FDBC0008FDBC0008FDBC000843
:10497000FDBC0008FDBC0008FDBC0008FDBC000833
:10498000FDBC0008FDBC0008FDBC0008FDBC000823
:10499000C9BA0008FDBC0008FDBC0008FDBC000849
:1049A000FDBC0008D5BA0008FDBC0008FDBC00082D
:1049B000FDBC0008FDBC0008E1BA0008FDBC000811
:1049C000FDBC0008FDBC0008FDBC0008FDBC0008E3
:1049D000FDBC0008EDBA0008FDBC0008FDBC0008E5
:1049E000FDBC0008FDBC0008FDBC00080000000084
:1049F00000000000000000000000000000000000B7
:0C4A000000000000000000005FF808F15A
:104A100010B5054C237833B9044B13B10448AFF3F8
:104A200000800123237010BDD00100200000000091
:104A300020C1000808B5034B1BB103490348AFF37D
:104A4000008008BD00000000D401002020C1000843
:104A5000034613F8012B002AFBD1181A01387047BE
:104A600003460244934200D1704703F8011BF9E763
:104A70002D4B70B51B680446834253D0C3691BB3EA
:104A8000DB6863B10025E369DB685959B1B90435C6
:104A9000802DF8D1E3692046D96800F06DF8E3690C
:104AA000196811B1204600F067F8E3699D685DB1AF
:104AB000294620462D6800F05FF8F8E70E6820468A
:104AC00000F05AF83146E1E7616911B1204600F083
:104AD00053F8E16911B1204600F04EF8216B11B195
:104AE000204600F049F8616B11B1204600F044F80F
:104AF000A16B11B1204600F03FF8A16C11B1204626
:104B000000F03AF8616C11B1204600F035F8E16A26
:104B100011B1204600F030F8236A1BB12046BDE8F1
:104B20007040184770BD00BF0000002070B500261F
:104B30000C4D0D4C641BA410A64209D107F0F0FAED
:104B400000260A4D0A4C641BA410A64205D170BD74
:104B500055F8043B98470136EEE755F8043B984773
:104B60000136F2E79CC200089CC200089CC2000803
:104B7000A0C200087047704738B50546002940D0EC
:104B800051F8043C0C1F002BB8BFE41800F03CF8AF
:104B90001C4A136833B9636014602846BDE8384086
:104BA00000F038B8A34208D9206821188B4201BF11
:104BB00019685B6809182160EDE71A465B680BB15C
:104BC000A342FAD911685018A0420BD120680144C1
:104BD000501883421160E0D118685B680844106087
:104BE0005360DAE702D90C232B60D6E7206821183E
:104BF0008B4201BF19685B680918216063605460CB
:104C0000CBE738BD280300200148FFF7B3BF00BF42
:104C1000240300200148FFF7AEBF00BF240300209B
:104C2000014B024A9A60704700ED00E0004900081D
:104C300090F83D30012B1FD10222036880F83D20FF
:104C4000DA680E4942F001028B42DA6009D0B3F112
:104C5000804F06D00A4A934203D002F58062934205
:104C600004D19A6802F00702062A03D01A6842F0BB
:104C700001021A600020704701207047002C01409B
:104C80000004004090F83C20012A6ED0034630B466
:104C9000012002241A6883F83C0083F83D409468A0
:104CA00024F47F4424F0770494600C68602C76D060
:104CB00011D8402C5BD02ED8202C04D000F2888054
:104CC00034F010011FD1916821F07001214341F0AF
:104CD0000701916016E0B4F5805F13D0B4F5005F72
:104CE00033D0702C0FD1D1E9015094682843CD689E
:104CF00024F47F4140EA052008439060916841F028
:104D00007701916000200121002283F83D1083F893
:104D10003C2030BC7047502CF5D14868CC68116AF3
:104D200021F00A010843116A21F001011162916921
:104D300021F0F00141EA041191611062916821F0C3
:104D4000700141F057019160DCE7D1E901509468AE
:104D50002843CD6824F47F4140EA05200843906051
:104D6000916841F480419160CCE702207047486827
:104D7000CC68116A21F00A010843116A21F001018F
:104D80001162916921F0F00141EA04119161106210
:104D9000916821F0700141F047019160B2E74868E5
:104DA000CC68116A21F0A00141EA0011106A20F0DC
:104DB00010001062906920F4704040EA0430906165
:104DC0001162916821F0700141F06701916099E7EB
:104DD000302C3FF478AF96E7704700BF704700BFB4
:104DE000704700BF704700BF036870B5DE681D697B
:104DF0000446A90701D5B20751D4690701D5720746
:104E00003AD42B0701D5300724D4EA0601D5F3069E
:104E100010D4E80701D5F10757D42A0601D5330687
:104E20005BD4680601D571065FD4AA0601D5B30626
:104E300042D470BD6FF0100108222368204619612A
:104E40002277DB6913F4407F63D0FFF7C7FF0023AD
:104E50002377DEE76FF008010422236820461961FA
:104E60002277DB69990751D1FFF7B6FF2046FFF79C
:104E7000B7FF00232377C8E76FF0040102222368FD
:104E80002046196122779B6913F4407F3BD1FFF7DD
:104E9000A3FF2046FFF7A4FF00232377B1E76FF0BD
:104EA00002021A61012202779B699B0725D0FFF756
:104EB00095FF00232377A0E76FF0200223682046A8
:104EC000BDE870401A6100F0CFB86FF001022368AE
:104ED00020461A6105F0B8FF9FE76FF08002236853
:104EE00020461A6100F0C2F89BE76FF04002236889
:104EF00020461A61FFF776FF97E7FFF76DFF204620
:104F0000FFF76EFFD5E7FFF769FFC5E7FFF766FF1D
:104F1000AFE7FFF761FF2046FFF762FF97E700BFAB
:104F200070B4204E0368B0424D698C680A6811D095
:104F3000B0F1804F0ED0A6F59436B04229D006F5D8
:104F40008066B04225D023F080032B430360C46207
:104F5000826213E04E6823F070033343CE6823F47B
:104F60004073334323F080032B4303600D4BC46233
:104F7000984208BF0B69826208BF03630123436143
:104F80000369DB0703D5036923F00103036170BCE8
:104F900070474E6823F07003C968334323F44073AD
:104FA0000B43D0E7002C014050B310B590F83D30D2
:104FB000044603F0FF02F3B10223214684F83D309A
:104FC00051F8040BFFF7ACFF012384F8463084F856
:104FD0003E3084F83F3084F8403084F8413084F823
:104FE000423084F8433084F8443084F8453084F803
:104FF0003D30002010BD80F83C2006F0A5FDDBE729
:105000000120704790F83C20012A27D00346022057
:105010001A6830B483F83D0050680C68104D20F0D9
:1050200070002043AA429468506009D0B2F1804FCA
:1050300006D00C48824203D000F58060824204D141
:10504000496824F080040C4394600022012183F815
:105050003C2083F83D10104630BC7047022070475A
:10506000002C014000040040704700BF704700BFA3
:1050700070B5C8B190F89132044603F0FF02002BDE
:105080004FD003220023254684F8912263712068C3
:1050900000F05AFF55F8040B95E80E0000F042FFAF
:1050A00028B1022384F891320125284670BD0146BB
:1050B000206800F053FF01460028F2D12679FEB1A6
:1050C000234622464FF0010C11740131B142C2E96E
:1050D000080082F811C0D07442F8280FF4D10021E2
:1050E0000A4683F850110131B142C3E9582283F8CE
:1050F000512183F85321C3F8682103F12803F0D12B
:1051000095E80E00206800F02BFF05460028C8D166
:1051100001236073206884F8913201F0D7FC28469F
:1051200070BD80F8902205F0AFFAAAE738B590F884
:105130009032012B12D004460125006884F8905269
:1051400000F0F8FE2946204605F0C6FB206801F075
:10515000BBFC002384F89032184638BD022038BDCD
:105160002DE9F04F044685B0006801F0B1FC10F461
:10517000004527D1460500F19081410416D48204F0
:1051800000F10D82C30400F1DF8207057DD48205A2
:1051900000F19083C30512D52268B2F8443023F49D
:1051A00080731B041B0CA2F8443008E02268B2F89C
:1051B000443023F480431B041B0CA2F8443005B098
:1051C000BDE8F08F2068B0F844301A04F7D540F6F7
:1051D0008F77C14E10E011F0100100F0E4800188DB
:1051E00011F400658BB240F005811B0400F176815B
:1051F000B0F844301B04E2D5B0F84450A9B215F021
:105200000F05E8D030F825304FEA850819041FFA59
:1052100083F900F1838019F0800FE9D030F8253050
:105220009BB2334043F4004320F8253008EB0503DC
:1052300004EBC302D17CDB00012900F0BC8192F8B1
:1052400010C019F4807A916A00F5806E4FEACC0B99
:1052500040F0E481B0F85050ADB25D4402353EF804
:105260001550C5F309058D4280F0D081491B91622C
:1052700003F11001536A21442B445362D36A2B4437
:10528000D36201F02DF92068B2E72168ADF1020385
:105290000D461A460E460DF10E0036F8047B22F834
:1052A000027F9042F9D1B1F8402092B242F001025F
:1052B000A1F84020B1F8402022F001021204120CA3
:1052C000A1F84020B1F844205605FBD5B1F84420A0
:1052D00022F480621204120CA1F8442033F8022F49
:1052E000984225F8042BF9D1B1F8403020469BB202
:1052F00043F00803A1F84030B1F8443023F40063D0
:105300001B041B0CA1F84430B1F840309BB243F0B1
:105310000403A1F8403005F009FA50E730F82530D1
:1053200008EB05013B4043F0800320F8253004EBF7
:10533000C10191F85C3100F58062002B7AD1B0F8A0
:10534000503091F850C19BB2063303EBCC0332F8D6
:1053500013A0CAF3090ABAF1000F40F013824FF00C
:10536000000A08EB050204EBC203D100D3F86C215C
:105370005244C3F86C21D3F864215244C3F8642129
:10538000D3F8682122B1D3F86031534540F2C1818E
:1053900008EB050304EBC303204693F8501105F016
:1053A0009BF9206837E703889BB2334043F40043FE
:1053B0000380B0F85030227C9BB203EBC20300EBB9
:1053C0004303B3F80434626AC3F309031A44E36283
:1053D0002046626205F08AF9637B4BB3A36A2068BA
:1053E000002B7FF405AF627B42F08002A0F84C20D6
:1053F0006373FDE6B0F8503094F850219BB203EB94
:10540000C20300EB4303B3F80C34B4F85621C3F3E2
:105410000903C4F86C3104F5267101F06FFB2268B2
:10542000204613883B4043F08003138005F04CF97D
:105430002068DDE691F8533191F850C1022B00F05D
:10544000F08130F82C3023F4E04323F070031B0488
:105450001B0C43F4004343F0C00320F82C3091F8B8
:1054600050C130F82C3013F4804FB0F850309BB25C
:1054700000F05781023303EBCC0332F813A0CAF3D8
:10548000090ABAF1000F3FF46AAFB1F85821534648
:10549000D1F8641101F032FB63E722682046B2F8CC
:1054A000443023F480631B041B0CA2F8443005F045
:1054B0002BF994F89032012B3FF481AE0123294659
:1054C0002068657384F8903201F0F8FA84F89052FD
:1054D00005B0BDE8F08F00BF0F8FFFFF40F68F7360
:1054E0000288134043F080030380B0F8503094F8F2
:1054F00050219BB203EBC20300EB4303B3F80C341F
:10550000C3F30903C4F86C3193B1D4F8641179B1D1
:10551000B4F8562101F0F2FAD4F86431D4F86C21D1
:10552000204613442946C4F8643105F0D5F82068B4
:10553000038819059AB23FF55BAE02F44052B2F50A
:10554000405F3FF455AEB0F8503000F20C419BB2D2
:10555000CA5AC2F30902CA52D4F860213E2A40F264
:10556000B6815509D206CA5A08BF05F1FF3592B275
:1055700042EA85226FEA42426FEA524292B2CA522E
:10558000038823F4804323F070031B041B0C83F473
:10559000405343F4004343F08003038028E622682D
:1055A000B2F8443023F400531B041B0CA2F844301F
:1055B00005B0BDE8F08F00216B1C03EB830344F8BA
:1055C0003310137FC3B119F04009537C40F01F81A1
:1055D000002B40F00482127CB0F85010120100F24F
:1055E0000C4389B20B44D15AC1F30901D152D15AAB
:1055F00089B241F40041D152A84404EBC8082046C6
:1056000098F8101005F072F82068F1E52046614620
:10561000C2F828A005F06AF82068E9E5B0F8503033
:1056200009F4804A9BB219F040095B4400F0B28053
:1056300002333EF81330C3F309038B4280F0A0819C
:10564000C91A9162BAF1000F0DD030F82C1021F474
:10565000E04121F070010904090C41F4404141F09E
:10566000800120F82C1008EB050E04EBCE0E9EF8FE
:105670003410012940F0B580DEF824101944CEF82A
:105680002410D2F82C909944C2F82C90DEF8309077
:10569000DEF820209145C0F09282A9EB0203CEF8FB
:1056A000303093B208EB050E04EBCE0E9EF811E0FD
:1056B000BEF1000F40F07382B0F8509000F2044E3B
:1056C0001FFA89F94FEA0C1CCE443EF80C903E2A92
:1056D000C9F309092EF80C9040F2A2824FEA521940
:1056E000D2063EF80C2008BF09F1FF3992B242EA17
:1056F00089226FEA42426FEA524292B22EF80C209F
:1057000008EB050204EBC202128B01F0E7F92068F6
:1057100067E001F5A8712068214400F0E1FE2068EF
:1057200079E5063303EBCC0332F813A0CAF3090A78
:10573000BAF1000F3FF413AEB1F85A215346D1F835
:10574000641101F0DBF90CE622682046B2F8403023
:1057500023F004031B041B0CA2F84030B2F84030C5
:1057600023F008031B041B0CA2F8403004F0EEFFEA
:105770002268B2F8443023F480531B041B0CA2F8B7
:1057800044301CE5B1F856215346D1F8641101F0BC
:10579000B5F9E6E506333EF81330C3F309038B424F
:1057A00000F2A080C91A9162002900F09D80BAF130
:1057B000000F0DD130F82C1021F4E04121F07001E0
:1057C0000904090C41F4404141F0800120F82C10FB
:1057D00008EB050E04EBCE0E9EF83410012900F004
:1057E0009581A84404EBC80898F8102030F82230BE
:1057F00023F4E04323F040031B041B0C83F030032D
:1058000043F4004343F0800320F82230F0E4002BFF
:1058100040F0F380127CB0F85010120100F2044303
:10582000DFE6B0F850304FEACC0A9BB219F4804B57
:10583000D1F868E1534400F0EE80023332F81330BF
:10584000C3F3090373459A4600F25C81AEEB030291
:10585000C1F868217AB930F82C2022F4804222F075
:1058600070021204120C82F4005242F4004242F020
:10587000800220F82C2019F0400F0DD030F82C2099
:1058800022F4E04222F070021204120C42F40042B0
:1058900042F0C00220F82C20002B3FF462AD08EB50
:1058A000050104EBC101B1F85821D1F8641101F0F0
:1058B00025F956E522682046B2F8443023F40073F7
:1058C0001B041B0CA2F8443004F01AFF77E4002AF2
:1058D00040F0DD80CA5A6FEA42426FEA524292B209
:1058E000CA524DE6C2F8289008EB050304EBC30347
:1058F0005B7C002B40F0EB80B0F8503000F2044E9F
:105900009BB29E444FEA0C133EF8032000F20C4178
:10591000C2F309022EF803203EF803206FEA424248
:105920006FEA524292B22EF80320B0F8502092B2A1
:105930001144CA5AC2F30902CA52CA5A6FEA424211
:105940006FEA524292B2CA526146204604F0CEFE3D
:10595000BAF1000F41D108EB050304EBC3031A7C35
:10596000206830F8223023F4E04323F070031B0456
:105970001B0C43F4404343F0800320F8223030E70F
:105980000021537C9162002B40F08C80B0F85030A5
:1059900000F204419BB219444FEA0C13CA5AC2F3F5
:1059A0000902CA52CA5A92B242F40042CA52B0F82C
:1059B000501000F20C4289B20A44D15AC1F30901D5
:1059C000D152D15A89B241F40041D15261462046A8
:1059D00004F08CFEBAF1000FBDD1206801E7012B65
:1059E0007FF40AAEB0F85010127C00F20C4389B27A
:1059F00012010B4422F80390FEE5012B7FF4FCAD6D
:105A0000B0F850C0137C1FFA8CFC00F204421B015A
:105A10006244D152F0E5063332F81330C3F3090380
:105A200073459A466BD8AEEB0302C1F868217AB988
:105A300030F82C2022F4804222F070021204120C62
:105A400082F4005242F4004242F0800220F82C20FE
:105A500019F0400F0DD130F82C2022F4E04222F052
:105A600070021204120C42F4004242F0C00220F80C
:105A70002C20002B3FF475AC08EB050104EBC101B1
:105A8000B1F85A21D1F8641101F038F869E45508E9
:105A9000D207CA5A48BF013592B242EA852292B271
:105AA000CA526DE5012B91D1B0F8502000F20443A9
:105AB00092B213444FEA0C1E23F80E10B0F8502097
:105AC00000F20C4392B2134423F80E107EE7012B30
:105AD0007FF43AAF4FF0000EB0F8502000F20443CC
:105AE00092B213444FEA0C1123F801E0B0F85020B1
:105AF00000F20C4392B2134423F801E024E7C1F80A
:105B000068B195E70022C1F86821A4E6DEF8241008
:105B10001944CEF82410D2F82C909944C2F82C9055
:105B2000DEF83090DEF8202091455ED3A9EB020329
:105B3000CEF8303093B208EB050E04EBCE0E9EF893
:105B400011E0BEF1000F41D1B0F8509000F20C4EC0
:105B50001FFA89F94FEA0C1CCE443EF80C903E2AFD
:105B6000C9F309092EF80C9065D94FEA5219D206EB
:105B70003EF80C2008BF09F1FF3992B242EA8922AF
:105B80006FEA42426FEA524292B22EF80C2008EBC2
:105B9000050204EBC202528B00F0A0FF1DE7BEF12C
:105BA000010F7FF4ADADB0F850E000F204421FFAEF
:105BB0008EFE4FEA0C1C724422F80C30A0E5B9F1BD
:105BC000000F19D11A468EF834906BE5BEF1010F23
:105BD000DDD1B0F850E000F20C421FFA8EFE4FEA21
:105BE0000C1C724422F80C30D1E7B9F1000F0DD132
:105BF0001A468EF834909EE74FF0000A4A461FFA84
:105C000089F38EF834A0CEF830A04BE54FF0000AAF
:105C10004A461FFA89F3CEF830A08EF834A08AE7FE
:105C2000A2B93EF80C206FEA42426FEA524292B2A9
:105C30002EF80C2064E5C2B93EF80C206FEA42420F
:105C40006FEA524292B22EF80C20A0E74FEA5209B6
:105C5000D2073EF80C2048BF09F1010992B242EA8E
:105C6000892292B22EF80C204AE54FEA5209D20757
:105C70003EF80C2048BF09F1010992B242EA89229C
:105C800092B22EF80C2082E790F89022012A0DD0D3
:105C900010B5012204460068617384F8902200F078
:105CA0000DFF002384F89032184610BD0220704783
:105CB00001F0070C10B5090604460CEB8C004FEA06
:105CC000C0001FD44FF0000E00F5A871204480F8EA
:105CD00051E12144022BCB7008BF002381F800C0A2
:105CE00008BF0B710A6194F89032012B13D0012385
:105CF000206884F8903200F049F9002384F890324B
:105D0000184610BD4FF0010E00F11001204480F83C
:105D100011E02144DEE7022010BD00BF01F00702C0
:105D200002EB8203090610B54FEAC303044616D4FA
:105D300003F5A87101440344002083F851010A705F
:105D400094F89032012B15D00123206884F890320A
:105D500000F0E4FA002384F89032184610BD03F1F5
:105D6000100101440344012058740A7094F89032E1
:105D7000012BE9D1022010BD10B5002401F0070E5F
:105D80000EEB8E0100EBC10CCCE9592300680CF539
:105D9000A871CCF86C418CF851418CF850E100F0BE
:105DA0009FFB204610BD00BF01F0070101EB810100
:105DB00000EBC100D0F86C01704700BF01F0070193
:105DC00038B501EB810E00EBCE0C012500248CF8D8
:105DD000101061460068CCF82420CCF82830CCF8AC
:105DE00030308CF83450CCF82C408CF811501031F5
:105DF00000F076FB204638BD38B5037901F0070581
:105E0000AB4230D30B0604461BD401EB8101C90021
:105E100001F5A87243188118002283F8512101234B
:105E20000D708B7094F890229A421AD0206884F8F2
:105E3000903200F0CBFDC5B1002384F890321846B3
:105E400038BD012205EB8503DB0003F1100103449B
:105E50005A74012301440D708B7094F890229A4279
:105E6000E4D1022038BD012038BD206804F5267138
:105E700000F032FEE0E700BF38B5027901F00F0311
:105E80009A422FD301F0070202EB8203090604466F
:105E90004FEAC30317D403F5A87101440344002556
:105EA000002083F851010A708D7094F89032012B14
:105EB00016D00123206884F8903200F0AFFD84F8FA
:105EC0009052284638BD03F11001014403440025D7
:105ED000012058740A708D7094F89032012BE8D12B
:105EE000022038BD012038BD11F0800F0CD001F028
:105EF000070101EB810100EBC100103099B262B9DA
:105F0000C18002730020704701EB810100EBC100EA
:105F100000F5A87099B2002AF2D0012283600273C2
:105F20000020704784B004A800E90E00002004B0EF
:105F3000704700BF034600224FF43F41A3F84420BE
:105F40001046A3F840107047034644F2FF02B3F82E
:105F5000401000200A40A3F84020704700207047FE
:105F60004FF0000C10B584B004AC04E90E004FF003
:105F7000010E03466046A3F840E0A3F840C0A3F832
:105F800044C0A3F850C004B010BD00BF70B50A787B
:105F9000034630F8220091F803E020F4EC4020F0B2
:105FA00070000004000CBEF1030F00F29E81DFE8D8
:105FB0000EF0CFD2860240F4C06048F2800C40EA76
:105FC0000C0023F8220033F8220020F4E04020F0F7
:105FD00070000004000C10434CEA000C23F822C0AF
:105FE000087B00287DD0002033F822C02CF4E24C3E
:105FF0002CF0700C4FEA0C4C4FEA1C4C4CF4004C4B
:106000004CF0800C23F822C0B3F85040B1F808C01F
:1060100003EB0215A4B24FEA5C0C4FEA4C0C2C4483
:10602000A4F800C44C89B3F850C064081FFA8CFC73
:10603000AC446400ACF808444978002940F0E180A1
:1060400033F822104E040DD533F8221021F4E0412C
:1060500021F070010904090C41F4404141F0800134
:1060600023F8221033F822104D060DD533F82210F4
:1060700021F4E04121F070010904090C41F40041D0
:1060800041F0C00123F8221048F2800433F82210B6
:1060900021F4804121F070010904090C81F4405180
:1060A000214323F8221033F8221021F4E04121F09B
:1060B00040010904090C0C4323F8224070BD48F24A
:1060C0008004204323F8220033F82200924D80B24E
:1060D00028401043044323F82240087B002840F066
:1060E000EA800020CC884E786408640003EB021537
:1060F000002E44D0B3F8501089B22944A1F80044CE
:1061000033F8221049060DD533F8221021F4E0416E
:1061100021F070010904090C41F4004141F0C00173
:1061200023F8221033F82210BEF1010F21F4E041D0
:1061300021F040014FEA01414FEA114118D081F0AE
:10614000200141F4004141F0800123F8221070BD8C
:1061500040F4007031E740F480602EE733F82210FD
:1061600021F4804121F070010904090C81F40051EF
:1061700041F4004141F0800123F8221070BD0E6906
:10618000B3F850103E2E89B22944A1F80844B3F860
:10619000501089B22944B1F80C44C4F30904A1F8A1
:1061A0000C4476D8002E40F09280B1F80C446FEA8F
:1061B00044446FEA5444A4B2A1F80C4433F82210CA
:1061C00049040DD533F8221021F4E04121F070018B
:1061D0000904090C41F4404141F0800123F82210E8
:1061E000002ABBD11A8822F4804222F070021204E5
:1061F000120C82F4405242F4004242F080021A80B3
:1062000070BD33F822104C040DD533F8221021F460
:10621000E04121F070010904090C41F4404141F0D2
:10622000800123F8221033F8221049060DD533F8E7
:10623000221021F4E04121F070010904090C41F41D
:10624000004141F0C00123F8221033F82210BEF1C2
:10625000010F21F4E04121F040014FEA01414FEAF2
:10626000114118BF81F0200141F4004141F080014B
:1062700023F8221033F8221021F4804121F070011C
:106280000904090C41F4004141F0800123F8221077
:1062900070BDB1F80C447509F60608BF05F1FF356D
:1062A000A4B244EA85246FEA44446FEA5444A4B299
:1062B000A1F80C4482E733F8220080B2284040F471
:1062C000014040F0800023F8220000209CE6F40703
:1062D000B1F80C444FEA560548BF0135A4B244EA70
:1062E0008524A4B2A1F80C4468E748F28004204356
:1062F00023F8220033F8220020F4E04020F0700060
:106300000004000C1043044323F82240087B08B922
:106310000120E7E6012067E68F8FFFFF10B40C7BBA
:106320004A780B78C4B9002A00F0B28030F82320F4
:10633000540600F1C68030F8232022F4E04222F017
:1063400040021204120C42F4004242F0800220F893
:10635000232010BC00207047002A4CD130F82320A5
:1063600052040DD530F8232022F4E04222F07002CE
:106370001204120C42F4404242F0800220F8232022
:1063800030F8232054060DD530F8232022F4E042C3
:1063900022F070021204120C42F4004242F0C002D9
:1063A00020F8232048F2800130F8232010BC22F48A
:1063B000E04222F070021204120C42F4004242F059
:1063C000C00220F8232030F8232022F4804222F05B
:1063D00070021204120C0A4320F8232030F8232004
:1063E00022F4E04222F040021204120C114320F881
:1063F00023100020704730F8232051040DD530F8C9
:10640000232022F4E04222F070021204120C42F423
:10641000404242F0800220F8232030F82320520628
:106420000DD530F8232022F4E04222F0700212044D
:10643000120C42F4004242F0C00220F8232048F23D
:10644000800130F8232010BC22F4E04222F07002D8
:106450001204120C42F4404242F0800220F8232041
:1064600030F8232022F4E04222F040021204120C01
:106470000A4320F8232030F8232022F4804222F01F
:1064800070021204120C114320F8231000207047F0
:1064900030F8232051040DD530F8232022F4E042B7
:1064A00022F070021204120C42F4404242F08002C8
:1064B00020F8232030F8232022F4804222F07002BA
:1064C0003FE730F8232022F4E04222F07002120469
:1064D000120C42F4004242F0C00220F823202AE7C6
:1064E0002DE9F04F4B780C7B012B83B074D0002C3E
:1064F0003ED0CA78022A00F04A81012A40F0BA80D0
:106500008A690C69A24294BF0025151B8D6188BF62
:106510002246002B40F01E81B0F850400B78A4B208
:1065200000F204451B012544EC5A3E2AC4F3090439
:10653000EC5200F20C4600F2B281002A40F0F480E6
:10654000EA5A6FEA42426FEA524292B2EA52B0F815
:10655000502092B23244D45AC4F30904D452D45ACB
:106560006FEA44446FEA5444A4B2D4520A781FE05C
:106570008D690B690A789D4284BFEC1A1D46B0F8FC
:1065800050308C619BB200F20C4412011C44A35A9F
:106590003E2DC3F30903A35262D8002D40F0418180
:1065A000A35A6FEA43436FEA53439BB2A3520A785C
:1065B00030F8223023F4804323F070031B041B0CBB
:1065C00083F4405343F4004343F0800320F8223027
:1065D000002003B0BDE8F08F0E698A694B69B242B2
:1065E00028BF324600F5806C002C00F0B580CD78D5
:1065F00091F800E0022D0C6A4FEA0E173ED030F8F9
:106600002E50A41AB0F850600C6294B201346D069A
:1066100092B24FEA5404B6B240F1108100F20C4538
:106620003544EA534A890CEB42023CB102EB840543
:1066300033F8024B22F8044B9542F9D10A7830F82E
:10664000223023F4E04323F040031B041B0C83F0AF
:10665000300343F4004343F0800320F82230B7E7CF
:10666000A35A6E09ED0608BF06F1FF369BB243EA56
:10667000862396E7012003B0BDE8F08FA64200F222
:10668000044B80F0598130F82E50A41A25F4E045CF
:1066900025F070052D042D0C45F4014545F08005CD
:1066A00020F82E5030F82EE095B21EF0400FB0F8D2
:1066B00050E005F101050C624FEA55051FFA82F919
:1066C00000F20C4A1FFA8EFE00F00881D6442EF824
:1066D0000790B1F80AE00CEB4E0E55B198460EEB60
:1066E000850A019638F8026B2EF8046BF245F9D151
:1066F000019E1344A6424B6180F05A81A21A0A629D
:10670000B0F8502092B25A4422F807900A890CEB54
:106710004202002D92D002EB850533F8024B22F89D
:10672000044B9542F9D189E75408D20748BF013498
:10673000A202EC5A92B2A4B21443EC52B0F8504008
:10674000A4B23444E55AC5F30905E552E55AADB2A1
:106750002A43E2520A782BE796B2CC8801367608B3
:106760000CEB440492B218BF03EB460605D033F895
:10677000025B9E4224F8045BF9D1B0F850500C78CB
:10678000ADB200F2044324012B44E25256E74BBB66
:10679000B0F850400B78A4B200F204421B0122442E
:1067A000D45A0D69C4F309043E2DD45200F20C46AC
:1067B00057D8002D40F0E580D45A6FEA44446FEA80
:1067C0005444A4B2D452B0F8502092B23244D45AB5
:1067D000C4F30904D452D45A6FEA44446FEA5444CF
:1067E000A4B2D452CB69002BB4D044F240030A784F
:1067F00030F8224003EA0405A34302D0002D7FF4C1
:10680000D7AE30F8223023F4E04323F070031B04AA
:106810001B0C43F4004343F0C00320F822300A78F5
:10682000C6E6EB07A35A4FEA550648BF01369BB2AE
:1068300043EA86239BB2A3520A78B9E600F20445E4
:106840003544EA530A890CEB420C002C3FF4F6AEB7
:1068500003EB440433F8022B9C422CF8042BF9D1AF
:10686000ECE66C09EF0608BF04F1FF34D55AA40228
:10687000A4B2ADB2254345F40045D552B0F850500E
:10688000ADB23544EA5AC2F30902EA52EA5A224347
:106890006FEA42426FEA524292B2EA52A2E75409C8
:1068A000D70608BF04F1FF34A202EC5A92B2A4B298
:1068B000144344F40044EC52B0F85040A4B23444C1
:1068C000E55AC5F30905E552E55A2A436FEA424203
:1068D0006FEA524292B2E2520A7869E6DE442EF83A
:1068E0000790B1F808E00CEB4E0E55B198460EEB50
:1068F000850B019638F8026B2EF8046BF345F9D13D
:10690000019E1344A6424B6159D2A41AB0F85020FC
:106910000C6292B2524422F807904A890CEB420270
:10692000002D3FF48BAE03EB450533F8024B9D423F
:1069300022F8044BF9D181E6A5B22C4630F82E207E
:10694000013422F4E24222F070021204120C42F4EA
:10695000004242F0800220F82E20B0F85020640857
:1069600092B25A44D5530A890CEB42023FF466AE08
:1069700003EB440533F8024B9D4222F8044BF9D156
:106980005CE66C08ED0748BF0134D55AA402A4B2F6
:10699000ADB22543D552B0F8502092B23244D55A08
:1069A000C5F30905D552D55AADB22C43D45219E7D7
:1069B000A5B2013500221FFA84F96D089FE6A5B241
:1069C00001351FFA84F96D0800249FE74B780A7897
:1069D0008BB130F8223023F4E04323F040031B0452
:1069E0001B0C83F0100343F4004343F0800320F8B2
:1069F00022300020704730F8223023F4804323F007
:106A000070031B041B0C83F4805343F4004343F0D6
:106A1000800320F822300020704700BF0B7B3BBB77
:106A20004B780A7833B330F822305B060DD530F856
:106A3000223023F4E04323F070031B041B0C43F4C7
:106A4000004343F0C00320F82230CB78012B0FD055
:106A500030F8223023F4E04323F040031B041B0CE6
:106A600083F0200343F4004343F0800320F82230F6
:106A70000020704730F822305B040DD530F822300A
:106A800023F4E04323F070031B041B0C43F4404346
:106A900043F0800320F8223030F8223023F4804382
:106AA00023F070031B041B0C83F4405343F4004396
:106AB00043F0800320F822300020704711B9802372
:106AC000A0F84C300020704700207047002070472D
:106AD000B0F8440080B2704700207047013300EBEB
:106AE00042005B0800F5806007D000EB830231F8BC
:106AF000023B20F8043B8242F9D1704770B500EBAD
:106B000042005E0800F5806514D02846B64601F1C3
:106B1000020C30F8042B0CF1020C92B2140ABEF1F4
:106B2000010E0CF8042C0CF8034CF2D101EB4601D9
:106B300005EB8605DB0744BF2B880B7070BD00BFDB
:106B4000074A08B51368032043F01003136000F0F0
:106B50001BFD0F2005F05CF804F0CEFF002008BDFF
:106B600000200240034A044B11681B780B44136059
:106B7000704700BF2C03002054000020014B186810
:106B8000704700BF2C030020002800F0E4812DE9AD
:106B9000F04103680446DD0782B035D599494A685B
:106BA00002F00C02042A00F0ED804A6802F00C02A8
:106BB000082A00F0E3806368B3F5803F10D0002B13
:106BC00000F00A81B3F5A02F00F080818D4B1A6888
:106BD00022F480321A601A6822F480221A6004E0DB
:106BE000884A136843F480331360FFF7C7FF854E6C
:106BF000054605E0FFF7C2FF401B642800F2E8806D
:106C000033689A03F6D523689F0728D57D4A5168D3
:106C100011F00C0F00F09680516801F00C0108296A
:106C200000F08C802369002B00F016810122764B46
:106C3000744E1A60FFF7A2FF054605E0FFF79EFFBE
:106C4000401B022800F2C48033689807F6D53368E9
:106C5000626923F0F80343EAC203336023681A072A
:106C600029D45D074BD5674BDA69D00000F18480E9
:106C70000125DA6942F08052DA61DB6903F0805362
:106C80000093009B614E3368D90540F19180E36821
:106C9000012B00F0F280002B00F0BE80052B594B39
:106CA0001A6A00F0208122F001021A621A6A22F0A8
:106CB00004021A62E6E0A369002B4CD00122524B79
:106CC000504EC3F88024FFF759FF054604E0FFF754
:106CD00055FF401B02287BD8736A9B07F7D54C4BA6
:106CE0004C4A1B68A2FB03235B0A019300BF019B74
:106CF0005A1E0192002BF9D123685D07B3D4E369D2
:106D0000C3B1404D6A6802F00C02082A00F0CD8041
:106D10000022022B3C4B1A6600F0ED80FFF72EFF9D
:106D2000044604E0FFF72AFF001B022850D82B6816
:106D30009B01F7D4002002B0BDE8F0815268D60371
:106D40003FF570AF2F4A1268950725D52269012AB1
:106D500022D00120EFE72C4A2A4EC2F88034FFF7F8
:106D60000DFF054604E0FFF709FF401B02282FD85E
:106D7000736A9F07F7D4BFE7002583E74A68D0030B
:106D80007FF519AF1F4A126891037FF53DAF626826
:106D9000002A7FF439AFDCE71A4960690A6822F0FB
:106DA000F80242EAC0020A601A077FF55AAF82E78A
:106DB000336843F480733360FFF7E0FE07463368BF
:106DC000DA053FF564AFFFF7D9FEC01B6428F6D99A
:106DD000032002B0BDE8F0810A4D2B6823F4803314
:106DE0002B602B6823F480232B60FFF7C7FE064639
:106DF00004E0FFF7C3FE801B6428E9D82B689B03DF
:106E0000F7D400E70010024000004242007000404A
:106E100050000020D34D6210504E41F28838336A42
:106E200023F001033362336A23F004033362FFF774
:106E3000A5FE074604E0FFF7A1FEC01B4045C7D8EA
:106E4000336A9807F7D4002D3FF459AF434AD3690A
:106E500023F08053D36152E7414A404E1360FFF75D
:106E60008DFE054604E0FFF789FE401B0228AFD8DF
:106E700033689907F7D42368F1E6384A136A43F078
:106E800001031362FFF77AFE41F288380646334F5A
:106E900004E0FFF773FE801B404599D83B6A9B07CF
:106EA000F7D5002D3FF42BAFD0E7012B3FF451AFC6
:106EB0006B68226A03F4803191427FF44AAF606AC2
:106EC00003F47013181A18BF012034E703F180434C
:106ED000A3F53C331A6842F480221A601A6842F41F
:106EE00080321A6081E642F004021A621A6A42F0A5
:106EF00001021A62C6E7FFF741FE064605E0FFF70A
:106F00003DFE801B02283FF663AF2B689901F6D443
:106F1000236AB3F5803F05D16A68A16822F4003284
:106F20000A436A6001200D4D616A6A680B4322F4CE
:106F300074120B4913436B600866FFF71FFE04468B
:106F400005E0FFF71BFE001B02283FF641AF2B6850
:106F50009A01F6D5EEE60120704700BF001002400E
:106F6000000042420E4A536803F00C01082901D088
:106F70000C4870470C48C3F38341DB03405C0AD5DF
:106F80000849536801FB00F0084AC3F34043D35C4F
:106F9000B0FBF3F07047064B03FB00F0704700BFF7
:106FA0000010024000127A0084C1000880C100086D
:106FB00000093D00002800F08C80494A2DE9F0418D
:106FC0001368044603F007038B420D460CD2136886
:106FD00023F007030B431360136803F007038B428E
:106FE00002D00120BDE8F0812368980714D5590725
:106FF00004D53C494A6842F4E0624A601A0704D565
:1070000038494A6842F460524A603649A0684A6882
:1070100022F0F00202434A60DF0720D56268314B5C
:10702000012A1B6857D0022A50D09907D9D52D4E76
:1070300041F28838736823F0030313437360FFF74A
:107040009DFD074604E0FFF799FDC01B404545D86C
:107050007368626803F00C03B3EB820FF3D1204A2C
:10706000136803F00703AB4209D9136823F0070341
:107070002B431360136803F00703AB42B1D12368BD
:107080005A0706D51749E0684A6822F4E0620243CD
:107090004A601B0707D5134A2169536823F46053DC
:1070A00043EAC1035360FFF75DFF03460D4A0E49F3
:1070B00052680E48C2F30312895C0D4ACB40006847
:1070C000136004F0A5FD0020BDE8F0819801AED466
:1070D00087E7012070479E03A9D482E7032081E758
:1070E000002002400010024070C10008580000203B
:1070F00050000020044B054A5B680549C3F3022396
:10710000CB5C1068D840704700100240500000204F
:1071100068C10008044B054A5B680549C3F3C223F4
:10712000CB5C1068D840704700100240500000202F
:1071300068C100080F220D4B10B402605A680C4C55
:1071400002F0030242605A6802F0F00282605A685C
:1071500002F4E062C2605B68DB0803F4E063036191
:10716000236810BC03F007030B6070470010024057
:10717000002002402DE9F04103680446D80782B0A0
:107180002CD5394BDA69D1003FD5384D00262B6814
:10719000DA0548D5344D61682B6A13F4407311D079
:1071A00001F440729A420DD0002001272B6A304A28
:1071B00023F44071C2F84074C2F84004D807296231
:1071C00044D46168284A136A23F440730B43136262
:1071D0001EB1D36923F08053D36123689A0706D583
:1071E0002149A0684A6822F4404202434A60DB0613
:1071F00003D4002002B0BDE8F0811B4AE168536867
:1072000023F480030B435360F3E7DA69174D42F030
:107210008052DA61DB69012603F080530193019B00
:107220002B68DA05B6D42B6843F480732B60FFF724
:10723000A5FC07462B68DB05ACD4FFF79FFCC31BFE
:10724000642BF7D9032002B0BDE8F081FFF796FC6C
:1072500041F2883807462B6A9907B2D4FFF78EFCB3
:10726000C01B4045F7D9EDE7001002400070004018
:10727000000042422DE9F04F0C6885B0002C00F070
:10728000A4800022031D019301254FF00F089246B0
:1072900013468146744F06E0013334FA03F002F1DD
:1072A000040200F0928005FA03F030EA040C00EAD0
:1072B0000406F1D14C68122C00F28F80122C0DD8EC
:1072C000DFE804F09D0AA9CF0C0C0C0C0C0C0C0C84
:1072D0000C0C0C0C0CB1AD00D1F80CA0FF2E99BF1A
:1072E0004C469446019CA2F1200C206808FA0CFE42
:1072F00020EA0E000AFA0CFC40EA0C0020604C6800
:10730000E00068D5B86923F0030C40F00100B861D3
:10731000B8690CF1804C00F0010003900CF5803C42
:1073200003F0030E03984FEA8E0EDCF8080008FA0B
:107330000EFB20EA0B00DFF834B1D94513D00BF572
:10734000806BD94573D0DFF828B1D9455CD0DFF820
:1073500024B1D9450CBF4FF0030B4FF0040B0BFACF
:107360000EFB40EA0B00CCF80800DFF80CC114F467
:10737000801FDCF8080014BF3043B043CCF808008D
:10738000DFF8F4C014F4001FDCF80C0014BF304325
:10739000B043CCF80C00DFF8E0C014F4003FDCF898
:1073A000040014BF3043B04314F4803F324CCCF897
:1073B000040020680CD0304320600C68013334FA9C
:1073C00003F002F104027FF46EAF05B0BDE8F08F68
:1073D00020EA060020600C685EE7DFF8A0C0644584
:1073E0000DD02BD8ACF5801C644508D00CF5702C62
:1073F000644504D0ACF5801C64457FF46FAF8C68A5
:1074000034BB4FF0040A69E74FF0020B0BFA0EFB96
:1074100040EA0B00A7E7C86800F1080A5EE7C86801
:1074200000F10C0A5AE7C86800F1040A56E74FF069
:10743000010B0BFA0EFB40EA0B0094E7DFF840C0AB
:107440006445DCD00CF5803C64457FF447AFD6E75B
:10745000012C4FF0080A0CBFC9F81000C9F814003D
:107460003CE74FF0000A39E70010024000080140F5
:1074700000100140001401400004014000002210EF
:10748000000031108368194214BF012000207047AA
:1074900002B9090401617047C36801EA030221EAE5
:1074A000030141EA02410161704700BF90F82120C9
:1074B0000346022A06D004229A630022012083F8A0
:1074C000202070474FF0010C1A680020116821F04D
:1074D0000E011160116821F001011160D3E90F1252
:1074E0000CFA02F24A60002283F821C083F82020BF
:1074F000704700BF90F821200346022A03D00422DF
:1075000001209A637047026810B511681B4821F08A
:107510000E0111601168824221F00101116022D038
:1075200017498A421DD014318A421ED014318A4232
:107530001ED014318A421ED014318A4214BF4FF03B
:1075400080724FF48012012000210E4C62605A6B51
:1075500083F8210083F820100AB1184690470020D4
:1075600010BD1022EFE70122EDE74FF48072EAE749
:107570004FF48052E7E74FF48032E4E7080002401E
:107580001C000240000002404FF6FF0C06490302B7
:10759000CA6803F4E06302EA0C02134343F0BF63DA
:1075A00043F40033CB60704700ED00E01B4B00B5A7
:1075B000DB68C3F30223C3F1070EBEF1040F03F12E
:1075C000040C28BF4FF0040EBCF1060F1CD9A3F128
:1075D000030C4FF0FF3303FA0CF322EA03024FF0DF
:1075E000FF3303FA0EF321EA030303FA0CF3134308
:1075F0001B010028DBB20ADB00F1604000F56140AE
:1076000080F800335DF804FB00229446E7E7044A63
:1076100000F00F00024413765DF804FB00ED00E07B
:10762000FCEC00E0002807DB012300F01F01034A07
:1076300040098B4042F82030704700BF00E100E075
:10764000BFF34F8F0549064BCA6802F4E06213434B
:10765000CB60BFF34F8F00BFFDE700BF00ED00E040
:107660000400FA05124BDB6813F0100305D0102359
:107670001049CA6942F00202CA610D4AD268500735
:1076800006D50C4943F00403CA6942F00102CA61FD
:10769000074AD169C90708D50648C16941F0040104
:1076A000C161D16921F00101D161014AD360704704
:1076B0000020024030030020064B186910F08000C3
:1076C00006D00549054A59605A601869C0F3C010D0
:1076D000704700BF0020024023016745AB89EFCD12
:1076E000034A0020136943F080031361704700BF11
:1076F0000020024070B50446FFF740FA0546144EDC
:10770000F368DB0705D5601C19D1114AD368D90786
:10771000FCD40F4BDA68900644BF2022DA600C4B91
:10772000DA68D10607D4DA69D20704D4D86810F031
:10773000040000D170BDFFF795FF012070BD24B19A
:10774000FFF71CFA401BA042DAD9032070BD00BF2E
:10775000002002402DE9F84F284E96F818C0BCF1E1
:10776000010F48D01C46012305464CF250308A4692
:1077700017463376FFF7BEFFC8BB012D03D0022D9D
:1077800014BF042502254FF00009DFF874B0C84685
:107790000AEB450501E0AA4529D0C9F12003C6F846
:1077A0001C80A9F1200227FA09FC04FA03F34CEA31
:1077B000030C24FA02F2DBF810304CEA020C43F01E
:1077C00001031FFA8CFCCBF810304CF25030AAF8B1
:1077D00000C0FFF78FFFDBF810300AF1020A23F038
:1077E000010309F11009CBF810300028D3D0002391
:1077F0003376BDE8F88F0220BDE8F88F3003002013
:10780000002002402DE9F8432D4E337E012B54D049
:107810000123337603688146022B31D04CF250307D
:107820008846FFF767FF074678BB4FF0FF33C8F87D
:107830000030D9E9025305EB83239D4225D2214C28
:1078400007E005F58065D9E9023203EB8223AB42FC
:107850001CD9F76123694CF2503043F002032361D5
:107860006561236943F040032361FFF743FF236908
:1078700023F0020323610028E3D0C8F8005005E09C
:107880004CF25030FFF736FF20B101200023337651
:10789000BDE8F8830B4CF06123694CF2503043F0A3
:1078A00004032361236943F040032361FFF722FFB0
:1078B000236923F004032361E8E70220BDE8F8838D
:1078C0003003002000200240026802F10C0353E85C
:1078D000003F23F4907302F10C0C4CE800310029B6
:1078E000F3D102F1140353E8003F23F0010302F146
:1078F000140C4CE800310029F3D1036B012B05D0A7
:107900002022002380F842200363704702F10C0319
:1079100053E8003F23F0100302F10C0C4CE8003157
:107920000029F3D1ECE700BF38B504460368C1680D
:107930001A691C4D22F440520A431A618268006998
:10794000D9680243606921F4B05121F00C0102436F
:107950000A43DA605A69A16922F440720A43AB42D1
:107960005A611BD0FFF7C6FB0346626803EB830333
:10797000920003EB8303B3FBF2F364250A4920680A
:10798000A1FB0342520905FB12331B013233A1FB59
:107990000313120102EB5312826038BDFFF7BAFBEA
:1079A0000346E2E7003801401F85EB5170B310B584
:1079B00090F84130044603F0FF0213B324232268F9
:1079C00084F84130D368204623F40053D360FFF796
:1079D000ABFF00224FF0200C23681046196921F4F8
:1079E00090411961596921F02A015961D96841F41E
:1079F0000051D960626484F841C084F842C0626377
:107A000010BD80F8402004F0BFF8D7E70120704790
:107A10002DE9F8431F4690F84130202B4ED188467F
:107A200009B1164612B90120BDE8F88321234FF0B1
:107A300000090446C0F8449080F84130FFF79EF8F2
:107A4000A3680546B3F5805FA684E68439D0E28C4E
:107A5000236892B2AAB11A68160604D4791C1ED102
:107A60001A681206FCD5B8F1000F21D018F8012BC6
:107A70005A60E28C013A92B2E284E28C92B2002A1D
:107A8000E9D11A68520604D4781C20D11A6851062C
:107A9000FCD5202384F841300020BDE8F883FFF7AF
:107AA0006DF8401B87421BD3D7B12368DA68D2E751
:107AB00039F8022BC2F308025A60DAE70220BDE867
:107AC000F8832369002BC2D1C1469846BFE7FFF770
:107AD00055F8431B9F4203D317B12368DA68D0E7F8
:107AE000202384F841300320BDE8F88390F8423029
:107AF000202B03D101B11AB9012070470220704731
:107B000010B44FF0220C0024816201690463036801
:107B1000C2858285446480F842C019B1DA6842F4B3
:107B20008072DA605A69002042F001025A61DA6814
:107B300010BC42F02002DA60704700BF704700BFFF
:107B4000704700BF08B50023406AC385C384FFF7B0
:107B5000F7FF08BD704700BF90F84230222B57D185
:107B600083680168B3F5805F826A44D0002B4BD1F3
:107B70000369002B48D14B68DBB21370826A013273
:107B8000C38D8262013B9BB2C385002B40D14FF075
:107B9000200C00B5026883B0D16821F02001D160CB
:107BA000D16821F48071D160516921F001015161E6
:107BB00080F842C04363016B01292AD1036302F1BB
:107BC0000C0353E8003F23F0100302F10C0C4CE8C7
:107BD00000310029F3D11368DB0606D50023019399
:107BE0001368019353680193019B818DFFF7B2FFE6
:107BF00003B05DF804FB0369002BBCD14B68C3F3F1
:107C0000080322F8023BBBE74B6803F07F03B4E7AD
:107C1000704703F087F903B05DF804FB70B50568A1
:107C200004462B682A4613F00F0FEE6882B069698C
:107C30006FD19D0602D5B10600F1C380216B0129E9
:107C40000BD0180602D5310600F191805B0602D5F3
:107C5000750600F1AB8002B070BDD806F1D5F10613
:107C6000EFD5002301931368019353680193019B9F
:107C700053695D0640F10A81E06B03685B689BB263
:107C8000002BE8D0A18D9942E5D9E3858369202BAB
:107C900036D002F10C0353E8003F23F4807302F165
:107CA0000C0545E800310029F3D102F1140353E833
:107CB000003F23F0010302F1140545E800310029DB
:107CC000F3D102F1140353E8003F23F0400302F123
:107CD000140545E800310029F3D1202384F842300F
:107CE000216302F10C0353E8003F23F0100302F17B
:107CF0000C0545E800310029F3D1FFF7D7FBA18D32
:107D000002236363E38D2046C91A89B2FFF722FF7D
:107D1000A1E711F0010176D116F4907F8ED0DA0739
:107D20000AD5F00540F1ED80626C580742F001027F
:107D300062644FD500296AD198075AD5190700F116
:107D4000A280626C002A86D09A0602D5B30600F1A2
:107D5000DC806B69626C03F0400302F0080253EAB6
:107D6000020620465CD1FFF7EBFE666473E794F8E9
:107D70004130212B7FF46FAFA168236AB1F5805F9A
:107D800000F0C880591C21621B785360E38C013BD2
:107D90009BB2E384002B7FF45EAFD36823F08003B3
:107DA000D360D36843F04003D36054E72021D36805
:107DB000204623F04003D36084F84110FFF7BEFE55
:107DC00049E702B0BDE87040FFF7C6BEF005ABD48E
:107DD0005A071CD498070CD50029AFD0626C42F02A
:107DE000040262641A07ACD5626C42F00802626455
:107DF000A7E71807A5D506F020020A43F4D1636C63
:107E0000002BA6D127E7DA07E0D4580738D5626CF3
:107E1000990742F002026264E0D41A07E4D490E7C2
:107E2000FFF752FD6B695E0626D505F1140353E892
:107E3000003F23F0400305F1140141E8003262B134
:107E4000226802F1140353E8003F23F0400302F1DB
:107E5000140040E800310029F3D1E06B60B1334BEE
:107E60004363FFF747FB00283FF4F5AEE06B436B3D
:107E700002B0BDE8704018472046FFF761FEEAE611
:107E80009907ABD4C9E7B206AED4B8E7E18DE38D6C
:107E9000A08D9BB289B2002B3FF4DDAE411A89B2AE
:107EA00000293FF4D8AE02F10C0353E8003F23F45D
:107EB000907302F10C0545E800300028F3D102F17F
:107EC000140353E8003F23F0010302F1140545E8D1
:107ED00000300028F3D1202384F84230206302F1DF
:107EE0000C0353E8003F23F0100302F10C0545E8B2
:107EF00000300028F3D1022320466363FFF72AFEF7
:107F0000A9E65A073FF518AF64E72046FFF724FEBD
:107F100025681EE7216900297FF434AF33F8021B7E
:107F2000C1F308015160236230E700BF457B0008C0
:107F300088B108B5D0F8B43213B10023C0F8B43218
:107F400009B1C0F8B0120123027080F89C3202F02F
:107F500001FC002008BD0220704700BF034619B194
:107F60000020C3F8B41270470220704708B502F031
:107F700033FC002008BD00BF08B5D0F8B43233B1DF
:107F80001B689847003818BF0120400008BD022038
:107F900008BD00BF08B5D0F8B4325B689847002030
:107FA00008BD00BF38B5044600F52A75284600F024
:107FB00051FB012394F8A812B4F8AE22C4F894320D
:107FC00001F01F03012BC4F898220ED0022B06D01B
:107FD0008BB92946204600F0FDF8002038BD29461F
:107FE000204600F09DFA002038BD2946204600F0CA
:107FF00063FA002038BD204601F0800102F012FC37
:10800000002038BD10B5044659B99446D0F89422E2
:10801000032A13D0052A0DD1C4F8941202F002FCF1
:1080200008E0D0F8B4329B6933B190F89C22032A5F
:1080300002D19847002010BD022010BDD0E958326F
:1080400093420AD99B1A9A426146C0F860318CBFAC
:108050009AB292B200F064FBECE7D0F8B4321B693C
:108060001BB190F89C22032A03D0204600F062FB4B
:10807000E0E79847F9E700BF70B5044691B9D0F83A
:108080009432022B1BD033F0040302D1802102F082
:10809000C9FB94F8A032012B02D1002384F8A0324E
:1080A000002070BDD0F8B4325B6933B190F89C22E7
:1080B000032A02D198470020F3E7022070BDD0E9DF
:1080C0000836B34227D8C369B3FBF6F506FB15356E
:1080D0008DB99E420FD8D0F8982293420BD22A46EF
:1080E00000F006FB2B462A4629462046C4F8985243
:1080F00002F0DCFBCDE7D4F8B432DB681BB194F8B6
:108100009C22032A15D08021204602F08BFB2046BA
:1081100000F01CFBBDE70D469B1B114603629AB2A3
:1081200000F0E6FA2B462A462946204602F0BEFB1E
:10813000AFE720469847E6E7002270B504464026A0
:1081400001251146402302F053FB802133460022D3
:108150002046C4F85851C4F8646102F049FB00217C
:10816000D4F8B832A561666284F89C52C4F89412BF
:108170006160C4F8A41223B1D4F8B43220465B681D
:108180009847002070BD00BF034600201974704757
:108190000346042193F89C22002083F89C1283F864
:1081A0009D22704790F89C32042B04BF90F89D32BA
:1081B00080F89C320020704790F89C22032A01D05E
:1081C0000020704708B5D0F8B432DB6903B1984796
:1081D000002008BD30B50B780D4603F06003202B5E
:1081E000044683B028D0402B26D053B180212046AE
:1081F00002F018FB0021204602F014FB002003B01F
:1082000030BD4B78092BF1D801A252F823F000BF02
:108210007D820008A5820008ED810008C382000865
:10822000ED810008CB82000805830008ED8100087D
:10823000398300084B820008D4F8B432294620461E
:108240009B689847002003B030BD8978994D01297B
:108250002970CBD890F89C32022B00F00B81032BB5
:1082600000F0F980802102F0DDFA0021204602F0C2
:10827000D9FA20462978FFF78DFEBFE790F89C32A7
:10828000013B022BB2D8CA88022AAFD1D0F8A4325F
:108290000146002B0CBF0123032341F80C3F00F0E3
:1082A00019FAABE790F89C32013B022B9ED84B8821
:1082B000012BA3D100232046C4F8A43200F03AFADF
:1082C0009CE74B88012B99D1F5E78B88002B8DD14A
:1082D000CB88002B8AD14B887F2B87D890F89C22A3
:1082E000032A83D0DDB2294680F89E5202F0C6FAF6
:1082F000204600F01FFA002D00F0D780022384F8FA
:108300009C327BE700216A88ADF80610130A013B16
:10831000062B3FF66BAF01A151F823F0CB83000889
:10832000B3830008A1830008ED810008ED810008F7
:108330008B8300085D830008CA88012A7FF456AF4A
:1083400090F89C32022B7FD8002B3FF44FAF0146B0
:10835000002341F8083F00F0BDF94FE7037C002BF4
:108360007FF444AFD0F8B4320DF106001B6B984790
:1083700007234370BDF80630EA88002B60D0002A3E
:1083800054D1204600F0D6F938E7037C002B7FF467
:108390002DAFD0F8B4320DF106005B6B9847E9E7DA
:1083A000D2B2052A3FF622AFDFE802F03A342E2897
:1083B0002217027CD0F8B432002A68D19B6A0DF1F2
:1083C0000600984702234370D4E7D0F8B0320DF18D
:1083D00006011B68007C9847CCE7D0F8B0329B6957
:1083E000002B3FF403AF207C0DF106019847C1E755
:1083F000D0F8B0325B69002BF5D1F7E6D0F8B03297
:108400001B69002BEFD1F1E6D0F8B032DB68002B0E
:10841000E9D1EBE6D0F8B0329B68002BE3D1E5E67A
:10842000D0F8B0325B68002BDDD1DFE69A4228BF7E
:108430001A4601462046ADF8062000F04BF9EA88BE
:10844000002A7FF4DBAE9CE7032B7FF4CFAE011D47
:1084500000F040F9D2E609B34168012991D0C9B2D0
:10846000FFF798FD297820466160FFF785FD022817
:1084700087D1BBE6002984D001210323416080F825
:108480009C32FFF779FD02287FF47BAFAEE6DB6A12
:108490000DF106009847022343706BE70223416009
:1084A00080F89C32FFF776FD6BE7012384F89C325D
:1084B000A4E600BF5003002038B50B780D465A06DD
:1084C00004460CD503F06002402A08D0802102F057
:1084D000A9F90021204602F0A5F9002038BD94F842
:1084E0009C32013B022B11D82B79012B0ED8D4F8EA
:1084F000B43229469B6820469847EB88002BECD184
:108500000028EAD1204600F015F9E6E78021204650
:1085100002F088F90021204602F084F9002038BDDD
:1085200070B50B78044603F06003202B8A883CD09A
:10853000402B3AD04BB18021204602F073F9002144
:10854000204602F06FF9002070BD4B78D5B2012BA8
:1085500042D0032B30D0002BEDD190F89C32022B6F
:1085600053D0032BE7D105F00F0303EB830312066F
:1085700000EB830358D4D3F85831002BDBD005EB44
:10858000850600EB860606F5AA76002D58D029460A
:10859000204602F05FF9002859D0012333600222FF
:1085A0003146204600F096F8CDE7D4F8B4322046A4
:1085B0009B689847002070BD90F89C32022B1AD01F
:1085C000032BB8D14B8893B96A0610D0CB8873B906
:1085D000294602F027F90AE090F89C32022B0AD0D3
:1085E000032BA8D14B88002BADD16E062BD1204692
:1085F00000F0A0F8A7E76B069DD0294602F012F91B
:108600008021204602F00EF99DE7680693D10023F1
:1086100011064CBF04F1140104F5AA710222204690
:108620000B6000F057F88EE79B69002B83D005F0B4
:108630007F06013606EB8606802D00EB8606A6D166
:1086400000233360ABE7294602F0F8F8CFE730604B
:10865000A5E700BF0B7803704B7843704B884380CD
:108660008B888380CB88C380704700BF10B50446D9
:10867000802102F0D7F82046BDE81040002102F02A
:10868000D1B800BF08B370B5037805460E4614464E
:10869000E3B10130FCF7DCF9431CDBB201335B00D2
:1086A000DAB223800323327073702C7864B12846C9
:1086B000022300215A1CD2B2F454B15410F8014FD5
:1086C0000233DBB2002CF5D170BD70470222134695
:1086D000E7E700BF10B5134602240A46C0E9073396
:1086E0000021C0F8944202F0D5F8002010BD00BF70
:1086F0008C4608B500211346624602F0CBF80020F4
:1087000008BD00BF10B5134603240A46C0E957331D
:108710000021C0F8944202F0C9F8002010BD00BF4B
:108720008C4608B500211346624602F0BFF80020CF
:1087300008BD00BF08B504210023C0F894121A46F2
:10874000194602F0A7F8002008BD00BF08B50521B2
:108750000023C0F894121A46194602F0A7F8002028
:1087600008BD00BFD0F8BC3283B110B5D0F8B84214
:1087700094F80002FF2807D09B68214694F8012254
:108780009847FF2384F80032002010BD0020704776
:108790000346432201481A80704700BFA000002012
:1087A0000346432201481A80704700BFE4000020BE
:1087B0000346432201481A80704700BF5C00002036
:1087C00003460A2201481A80704700BF600100205A
:1087D00038B50446D0F8B85202F074F8D4F8B8327C
:1087E000C5F80C024BB1D4F8BC32D5F80402DB68F2
:1087F00005F503719847002038BD022038BD00BF41
:1088000038B5D0F8B842E4B101EB810300EB830C3A
:10881000DCF81C20D0F8C05222B90023C4F814326E
:10882000002038BD05EBC3052B6AB2FBF3F503FB53
:108830001523002BF1D11A46CCF81C3002F02AF88F
:10884000EEE7022038BD00BF002370B582B08DF87E
:108850000530ADF806300B780C4613F06002054683
:10886000D0F8B8621AD0202A06D028462146FFF751
:10887000FDFE022002B070BDCA8891F801C0F2B1BD
:108880001B0632D5D5F8BC32314660469B68984706
:1088900031462846E288FFF71DFF15E04B780A2B8A
:1088A00019D00B2B12D0002BDFD190F89C32032B68
:1088B000DBD102220DF10601FFF70CFF04E0D0F836
:1088C000BC3260469B6898470020D3E790F89C3202
:1088D000032BF9D0C9E790F89C32032BC5D10122B4
:1088E0000DF10501FFF7F6FEEEE7314686F800C20E
:1088F00086F80122FFF706FFE6E700BF38B5044619
:108900000025812101F082FF01212046E56201F06E
:108910007DFF82212046C4F86C5101F077FFD4F826
:10892000B83225644BB1D4F8BC325B689847D4F8B0
:10893000B80201F0CFFFC4F8B852002038BD00BF24
:1089400070B5037C04469BBB4FF400730222812167
:1089500001F04EFF01214FF4007302222046E16234
:1089600001F046FF01260823032282212046C4F895
:108970006C6101F03DFF4FF40770266401F0A6FF23
:108980000546C4F8B80248B3D4F8BC321B6898470F
:108990000023C5F81432C5F81832237CABB140234C
:1089A00031462046D5F8042201F080FF002070BD3A
:1089B00040230222812101F01BFF012140230222DA
:1089C0002046E16201F014FFCCE74FF4007331461A
:1089D0002046D5F8042201F069FFE7E7304670BD74
:1089E000034619B10020C3F8BC127047022070473B
:1089F0000346D3F8B8320020C3F80812C3F8102297
:108A0000704700BF0346D3F8B8320020C3F8041201
:108A1000704700BFF8B5D0F8B85295B1D5F81442F8
:108A20000CB10120F8BD0127D5F81062D5F8082255
:108A3000C5F814728121B3B2066301F02BFF204602
:108A4000F8BD0220F8BD00BFD0F8B8228AB108B541
:108A5000037CD2F804222BB14023012101F026FF30
:108A6000002008BD4FF40073012101F01FFF00201A
:108A700008BD0220704700BF4FF0FF31002200F117
:108A80000803C0E90131C0E903330260704700BF49
:108A900000230361704700BF4268036810B4946804
:108AA0000133C1E901246160916010BC0861036079
:108AB000704700BF30B40D686B1C10D000F1080384
:108AC0001C465B681A68AA42FAD902684B600132F8
:108AD00099608C606160086130BC02607047046915
:108AE0006368F2E7036910B4D0E901125C688A6038
:108AF00051600021844208BF5A601A680161013A3E
:108B00001A60186810BC704770B51646026C0446AF
:108B1000856B2AB9066801354EB31046A56370BD52
:108B20008EB9406803F0EEFA6368216CA2680B44CA
:108B30009342636028BF236805F1010528BF636085
:108B40000020A56370BDC06803F0DCFA226CE36806
:108B500051429B1A2268E360934202D2A3680B44FD
:108B6000E360022E08D001350020A56370BD806847
:108B700001F028F8A660D1E7012D38BF0125DFE715
:108B800070B5054601F06EFC95F845305CB2002CDE
:108B900014DD05F1240603E0631EDAB25CB26AB1AB
:108BA0006B6A5BB1304600F065FF0028F4D000F03E
:108BB000F3FF631EDAB25CB2002AF1D1FF2385F81D
:108BC000453001F071FC01F04DFC95F844305CB289
:108BD000002C14DD05F1100603E0631EDAB25CB26E
:108BE0006AB12B695BB1304600F044FF0028F4D035
:108BF00000F0D2FF631EDAB25CB2002AF1D1FF238B
:108C000085F84430BDE8704001F04EBC38B5E0B1A5
:108C100004460D4601F026FCFF230022216CA263CE
:108C200084F8443084F84530E36B226801FB03F399
:108C3000591A626013440A44C4E9023275B92369BF
:108C4000C3B901F031FC012038BD4FF0500383F36C
:108C50001188BFF36F8FBFF34F8FFEE704F1100051
:108C6000FFF70AFF04F12400FFF706FF01F01CFCE8
:108C7000012038BD04F1100000F0FCFE0028E0D017
:108C80004FF0E0234FF08052C3F8042DBFF34F8F15
:108C9000BFF36F8FD5E700BF30B583B09DF8185094
:108CA00040B94FF0500383F31188BFF36F8FBFF3C8
:108CB0004F8FFEE71C4683B103467AB3B1B1502013
:108CC0000190019850281AD04FF0500383F3118877
:108CD000BFF36F8FBFF34F8FFEE74FF0500383F367
:108CE0001188BFF36F8FBFF34F8FFEE74FF0500334
:108CF00083F31188BFF36F8FBFF34F8FFEE70198A7
:108D0000C4E90F3101212046226084F84610FFF7A4
:108D10007DFF204684F84C5003B030BD39B9502255
:108D20000192019A502ACFD122460198E8E74FF0EC
:108D3000500383F31188BFF36F8FBFF34F8FFEE7AC
:108D4000F0B585B0019200287DD004460E461D4640
:108D5000002968D0022D0BD1E36B012B08D04FF016
:108D6000500383F31188BFF36F8FBFF34F8FFEE77C
:108D700000F018FF00286FD001F074FBA26BE36BCA
:108D80009A4275D3022D73D0002217460DE001F0F0
:108D90008BFB2046FFF7F4FE00F090FD01F062FB34
:108DA000A16BE36B0122994262D30198002876D02F
:108DB000002A44D001F078FB00F034FC01F052FBB3
:108DC00094F84430FF2B08BF84F8447094F8452091
:108DD000FF2A08BF84F8457001F066FB01A902A8CC
:108DE00000F09AFE00285ED101F03CFBA26BE36B21
:108DF0009A42CCD101F058FB019904F1100000F027
:108E0000FFFD2046FFF7BCFE00F058FD0028C5D14D
:108E10004FF0E0234FF08052C3F8042DBFF34F8F83
:108E2000BFF36F8FBAE7036C002B93D04FF0500362
:108E300083F31188BFF36F8FBFF34F8FFEE702A854
:108E400000F05EFEB6E74FF0500383F31188BFF3E6
:108E50006F8FBFF34F8FFEE7019B002B8CD04FF03D
:108E6000500383F31188BFF36F8FBFF34F8FFEE77B
:108E70002A4631462046FFF747FE636ACBB948B120
:108E80004FF0E0234FF08052C3F8042DBFF34F8F13
:108E9000BFF36F8F01F008FB012005B0F0BD01F0BA
:108EA00003FB0020F9E72046FFF76AFE00F006FD0D
:108EB000F7E704F1240000F0DDFD0028EAD0DFE749
:108EC000002848D02DE9F04104460E4617461D46BD
:108ED00021B3022D0BD1E36B012B08D04FF05003CF
:108EE00083F31188BFF36F8FBFF34F8FFEE701F05D
:108EF0009DFBEFF311884FF0500383F31188BFF30C
:108F00006F8FBFF34F8FA26BE36B9A4212D3022D88
:108F100010D0002088F31188BDE8F081036C002B8D
:108F2000D7D04FF0500383F31188BFF36F8FBFF397
:108F30004F8FFEE72A4694F84550314620466DB2E1
:108F4000A36BFFF7E1FD6B1C0ED06B1C5BB284F8CA
:108F500045300120DEE74FF0500383F31188BFF363
:108F60006F8FBFF34F8FFEE7636A002BF1D004F1E0
:108F7000240000F07FFD0028EBD0002FE9D0012372
:108F80003B60E6E7F0B585B00192002800F08480F0
:108F900004460E46002941D000F004FE002849D0C6
:108FA00001F060FAA56B002D7FD1019B8BB302A865
:108FB00000F0A6FD2F4601F077FA00F033FB01F038
:108FC00051FA94F84430FF2B08BF84F8447094F8A9
:108FD0004530FF2B08BF84F8457001F065FA01A900
:108FE00002A800F099FD002830D101F03BFAA36BF4
:108FF000002B38D001F058FA2046FFF7C1FD00F0F1
:109000005DFC01F02FFAA56B002D4ED1019B002BCA
:10901000D1D101F049FA002005B0F0BD036C002B5E
:10902000BAD04FF0500383F31188BFF36F8FBFF3B3
:109030004F8FFEE7019B002BB2D04FF0500383F31C
:109040001188BFF36F8FBFF34F8FFEE72046FFF706
:1090500097FD00F033FC01F005FAA36B002BD8D08C
:1090600001F022FACDE701F01FFA019904F1240082
:1090700000F0C6FC2046FFF783FD00F01FFC00282F
:10908000BFD14FF0E0234FF08052C3F8042DBFF35F
:109090004F8FBFF36F8FB4E74FF0500383F3118806
:1090A000BFF36F8FBFF34F8FFEE7226C5AB1E168B9
:1090B000A36811449942E16028BF2168304628BF67
:1090C000E16003F01FF8013DA56323691BB901F0BE
:1090D000EBF90120A0E704F1100000F0CBFC002820
:1090E000F5D04FF0E0234FF08052C3F8042DBFF3CA
:1090F0004F8FBFF36F8FEAE7002310B4084A52F88E
:10910000334002EBC30C24B10133082BF7D110BC60
:10911000704710BC42F83310CCF80400704700BF11
:109120005803002070B504460E46154601F09AF922
:1091300094F84430FF2B04BF002384F8443094F8A3
:109140004530FF2B04BF002384F8453001F0ACF913
:10915000A36B23B12046BDE87040FFF711BD04F1B9
:1091600024002A46314600F065FC2046BDE87040E8
:10917000FFF706BD2DE9F041054601F073F9334ACA
:10918000334E1368013313603368002B31D0314CF8
:10919000E86A236833B3304F304A314913680133EA
:1091A00013606B640B68834238BF086000EB80007B
:1091B00007EB8000291DFFF76FFC01F075F92368AC
:1091C00073B13268EB6AD26A9A4209D24FF0E02357
:1091D0004FF08052C3F8042DBFF34F8FBFF36F8F52
:1091E000BDE8F08133681C4FDB6A834298BF35606D
:1091F000D2E735601368012B03D0E86A164F154C8F
:10920000CAE7154F3C4607F58C6820461434FFF733
:1092100033FC4445F9D1DFF84C80134C4046FFF74E
:109220002BFC2046FFF728FC1048FFF725FC1048D0
:10923000FFF722FC0F48FFF71FFC0F4BE86AC3F84B
:1092400000800E4B1C60034CA6E700BFBC0300204F
:1092500090080020B003002030040020A00300206C
:10926000B40300201C04002008040020EC030020AC
:10927000D8030020C00300200404002000040020C4
:10928000F8B504461B4B1C4E1D6830680F46043071
:10929000FFF728FC631C0FD033682D195D6010D2D6
:1092A000164B186831680431FFF704FC144B1A6838
:1092B000AA4200D91D60F8BDA7B933686A1E5A607A
:1092C0003DB1104B18683168BDE8F8400431FFF734
:1092D000F1BB0A4B186831680431FFF7EBFB084B10
:1092E0001B68F8BD316808480431BDE8F840FFF755
:1092F000D3BB00BFB8030020900800200404002066
:109300009C03002000040020C003002010B5044688
:109310005830FBF7ADFB94F89D3163B1012B13D0AE
:10932000022B10D04FF0500383F31188BFF36F8FDF
:10933000BFF34F8FFEE7206B00F0FCFF2046BDE837
:10934000104000F0F7BF10BD2046BDE8104000F00F
:10935000F1BF00BF4FF0E0294FF0805880B5134CAB
:10936000134E144DDFF850A011E001F07BF8F368C4
:10937000DF68381DFFF7B6FB2B68013B2B602368C5
:10938000013B236001F090F83846FFF7BFFF2368E8
:10939000002BEAD1DAF80030012BF8D9C9F8048D96
:1093A000BFF34F8FBFF36F8FF1E700BFD4030020EF
:1093B000D8030020BC030020300400202DE9F04732
:1093C00089460A9C95002A460646A521206B1F4621
:1093D000DDF82480FBF744FB236B043D1D4425F09E
:1093E0000705B9F1000F55D009F1FF3C04F1330333
:1093F00009F10F091CF8012F03F8012F0AB1CC4520
:10940000F8D1002384F84330DDF820904FF0000AB3
:10941000B9F1370F28BF4FF03709201DC4E9139A5F
:10942000C4F82C90FFF734FB04F11800FFF730FB71
:10943000C9F138034FF4A0725146A361C4F898A152
:109440002461646284F89CA104F15800FBF708FBD6
:109450000B2331462846114E114D3A46C4E93E656C
:10946000002701260F4DA4F804310F4BC4F800511A
:10947000E36503F16805D033C4E93C67256663669C
:1094800000F0C8FF2060B8F1000F01D0C8F800401C
:10949000BDE8F08784F83490B6E700BF0E33CDAB5B
:1094A00034126DE6ECDE0500EC01002030B587B02B
:1094B0000B9CD4B10C9D7DB14FF4D0750595059DE5
:1094C000B5F5D07F1AD04FF0500383F31188BFF366
:1094D0006F8FBFF34F8FFEE74FF0500383F3118878
:1094E000BFF36F8FBFF34F8FFEE74FF0500383F34F
:1094F0001188BFF36F8FBFF34F8FFEE70C9D2C6376
:10950000022402950A9D0095059D04AD01950C9DD0
:1095100085F89D41FFF752FF0C98FFF72BFE04984A
:1095200007B030BD2DE9F043074685B090001546E1
:109530008846994600F066FEF8B104464FF4D070B4
:1095400000F060FE0646A8B10463002486F89D4141
:109550000D9C4B4601940C9C2A4641463846029687
:109560000094FFF72BFF3046FFF704FE012005B003
:10957000BDE8F083204600F0DDFE4FF0FF3005B07F
:10958000BDE8F08330B5002489B007AA06A905A874
:10959000CDE9054400F0ECFDDDE905231A49CDE9EC
:1095A00001321A482346079A0094FFF77FFF70B1F3
:1095B00000F082FB01280CD0013008D14FF050039D
:1095C00083F31188BFF36F8FBFF34F8FFEE709B0AE
:1095D00030BD4FF0500383F31188BFF36F8FBFF39B
:1095E0004F8F4FF0FF350A4B0A4A1B680A49583320
:1095F00013600A4A0A4B0D6010601C6009B0BDE898
:10960000304000F0B3BF00BF94C10008559300087C
:1096100090080020000000209C030020B0030020E0
:10962000B8030020024A136801331360704700BF7B
:1096300098030020014B1868704700BFB803002052
:109640002DE9F04F4E4B83B01B68002B45D14D4B9D
:109650001E6801361E60002E48D04B4B0193019BC3
:109660001B689E424FD3494F3B681D68002D75D043
:109670000025DFF81C91DFF81CA1DFF81C8121E038
:109680005846FFF72FFAA36A04F118000BB1FFF751
:1096900029FAE06AD8F800305946984288BFC8F8DD
:1096A000000000EB800009EB8000FFF7F5F9DAF825
:1096B0000030E26ADB6A9A4228BF01253B681B68DA
:1096C000002B4FD03B68DB68DC68636804F1040B57
:1096D0009E42D5D2019A13601AE0002528462F4AEF
:1096E00013680133136003B0BDE8F08F274B1A688D
:1096F00012680AB34FF0500383F31188BFF36F8FE2
:10970000BFF34F8FFEE70025DFF88490DFF884A0D9
:10971000DAF800302249DB6A03EB83039B0059F837
:1097200003200B68022A28BF0125002B18BF012542
:10973000284603B0BDE8F08F1A4A1868116819600E
:10974000194910600A6801320A601A68126872B911
:109750004FF0FF330C4A0192136080E7DFF830903E
:10976000DFF830A04FF0FF33019A1360D0E71B6899
:10977000054ADB680192DB685B6813606FE700BF36
:1097800098030020B80300209C030020040400205C
:109790003004002090080020B4030020AC03002017
:1097A000A803002000040020A40300202DE9F84FA6
:1097B00000F058FE374B1A68013A1A601B68002BFC
:1097C00057D1354B1B68002B53D0344D2B68002BE1
:1097D0005CD04FF0010A324EDFF8C880324FDFF81C
:1097E000CC90EB68DC6804F1040B04F11800FFF77F
:1097F00079F95846FFF776F9E36A326803EB83009C
:109800009342594608EB800088BF3360FFF744F964
:109810003B68E26ADB6A9A4228BFC9F800A02B685D
:10982000002BDED1224B1A68126842BB4FF0FF3288
:10983000204B1A60204E346844B10125FFF700FF29
:1098400008B1C9F80050013CF8D13460D9F80030B3
:109850007BB14FF0E0234FF08052C3F8042DBFF3EB
:109860004F8FBFF36F8F012400F01EFE2046BDE82E
:10987000F88F002400F018FE2046BDE8F88F1A6823
:109880000C4BD268D26852681A60D3E7DFF81C909C
:10989000D0E700BF98030020BC030020EC030020A9
:1098A000B40300203004002090080020A80300200A
:1098B000040400209C030020AC030020064B1B681E
:1098C00043B94FF0500383F31188BFF36F8FBFF399
:1098D0004F8FFEE7FFF76ABF9803002010B550B91D
:1098E0004FF0E0234FF08052C3F8042DBFF34F8FA9
:1098F000BFF36F8F10BD104C216841B14FF0500382
:1099000083F31188BFF36F8FBFF34F8FFEE7236898
:1099100001332360FFF7B4FC236843B94FF05003D1
:1099200083F31188BFF36F8FBFF34F8FFEE7FFF70D
:109930003DFF0028D4D010BD9803002038B52A4B35
:109940001B681BB10122294B1A6038BD274A284CDD
:10995000136023681B6B1A68B2F1A53F03D15A68E4
:10996000B2F1A53F37D020682168343102F078F891
:10997000204D21492B6803EB830292008A589800FE
:1099800042B9FBB1013B03EB830251F8222098005E
:10999000002AF6D0184401EB800C6246DCF8041073
:1099A000083249689142CCF8041008BF4968134A4C
:1099B00008BFCCF80410C96821602B6023685833B5
:1099C000136038BD4FF0500383F31188BFF36F8FDE
:1099D000BFF34F8FFEE79A68B2F1A53FC3D1DB68B2
:1099E000B3F1A53FBFD1C3E798030020A80300202F
:1099F00090080020B4030020300400200000002064
:109A000060B110B50C460A4B19681831FFF752F8CF
:109A10002046BDE810400121FFF732BC4FF0500353
:109A200083F31188BFF36F8FBFF34F8FFEE700BF43
:109A30009008002038B588B114460D460C4B1968C3
:109A40001831FFF729F8002C214608BF2846BDE849
:109A5000384018BF4FF0FF30FFF712BC4FF05003F3
:109A600083F31188BFF36F8FBFF34F8FFEE700BF03
:109A70009008002038B5C368DC684CB304F11805C1
:109A80002846FFF72FF8184B1B6873B12946174873
:109A9000FFF702F8164BE26A1B68DB6A9A4220D98C
:109AA0000123144A1846136038BD251D2846FFF7C8
:109AB00019F8114AE36A116810488B4288BF136095
:109AC00003EB8303294600EB8300FEF7E5FFE1E7A4
:109AD0004FF0500383F31188BFF36F8FBFF34F8FA5
:109AE000FEE7002038BD00BF98030020EC030020F3
:109AF00090080020A8030020B403002030040020B8
:109B0000034A044B12681B68C0E90023704700BF7A
:109B1000A4030020B8030020F8B5F8B10D46A1B1A8
:109B2000044600F09FFC2B68194A581C116829D084
:109B3000D4E900C0174E3768BC4518D0884216D803
:109B4000012400F0B1FC2046F8BD4FF0500383F330
:109B50001188BFF36F8FBFF34F8FFEE74FF05003B5
:109B600083F31188BFF36F8FBFF34F8FFEE7A1EB35
:109B7000000E734508D95B1A3168126803442B60E4
:109B8000C4E900120024DCE700232B60D8E700BF03
:109B9000B8030020A40300200122014B1A60704783
:109BA000A8030020054B1B6833B1054B1868B0FAB9
:109BB00080F040094000704701207047B00300204A
:109BC0009803002008B338B51D4B1C68844208D0A8
:109BD0004FF0500383F31188BFF36F8FBFF34F8FA4
:109BE000FEE7236D43B1E16AE26C013B91422365DC
:109BF00000D063B1002038BD4FF0500383F31188CB
:109C0000BFF36F8FBFF34F8FFEE700207047251D16
:109C10002846FEF767FF0B4AE36C1068E362834255
:109C20000948C3F1380188BF136003EB8303A161C6
:109C300000EB83002946FEF72FFF012038BD00BF4F
:109C400090080020B403002030040020F0B5124C2E
:109C500083B000F007FC256825B103B0BDE8F040F3
:109C600000F022BC0D4E0E4F3046FEF705FF384681
:109C7000FEF702FF0B490C4B00950A201F600E6097
:109C80000A4B10210A4AFFF707F820600028E4D0A9
:109C90000849FFF731FAE0E78C090020AC09002001
:109CA00098090020940900209009002094080020C1
:109CB000E40800209CC1000810B588B0FFF7C6FF7B
:109CC000124B1B68CBB1002407AA06A905A8CDE951
:109CD000054400F05BFA02222346059C00920294A0
:109CE000069C0B490B48079A0194FFF7DFFB0A4BD0
:109CF000186010B1012008B010BD4FF0500383F37D
:109D00001188BFF36F8FBFF34F8FFEE78C090020E0
:109D1000A4C10008059E000888090020C8B130B51C
:109D2000184D85B02C688CB10529CDE90012029040
:109D300018DCFFF737FF02284FF000031BD06946FD
:109D40001A462868FEF7FCFF05B030BD204605B076
:109D500030BD4FF0500383F31188BFF36F8FBFF313
:109D60004F8FFEE79C462046002362466946FFF778
:109D7000A7F805B030BD6946089A2868FEF7E0FFED
:109D8000E5E700BF8C090020F0B51C4E83B00DE064
:109D9000DB68DC681F68251D2846FEF7A3FE236AE2
:109DA0002046984794F828305B0709D433681A682E
:109DB000002AEDD1124A11681360316003B0F0BD82
:109DC000A3693B449F4206D2294630686360246100
:109DD000FEF770FEEAE700233A4620461946009354
:109DE000FFF79CFF0028E1D14FF0500383F3118867
:109DF000BFF36F8FBFF34F8FFEE700BF94090020C2
:109E0000900900202DE9F04F4FF0E0294FF08058E5
:109E10008B4E8C4D8C4C89B032681768002F40F007
:109E20009D80FFF7FFFBFFF705FC2A688346904201
:109E3000C0F0A380854B28601A681268B2FA82F2DB
:109E400052092068A7EB0B01FFF76CF9FFF736FD0D
:109E500028B9C9F8048DBFF34F8FBFF36F8F00226D
:109E6000206804A9FFF78EF80028D5D0049B069837
:109E7000002B6CDB069F7B6913B1381DFEF732FEA9
:109E8000FFF7D8FB2B68834698427DD3049BC5F827
:109E900000B0092BE3D8DFE803F00505054A34518B
:109EA00005054A3497F82820059BB96942F001025C
:109EB00087F828205A182CBF012000205A453F61FE
:109EC0007A6064D8ABEB030399422AD83B6A3846E0
:109ED000984797F828305907C1D500230599BA69E2
:109EE00038460A4400931946FFF718FF0028B6D1F8
:109EF0004FF0500383F31188BFF36F8FBFF34F8F81
:109F0000FEE797F82820059B42F0010287F82820F9
:109F1000BB61002B00F086805B445B457B603F614A
:109F200039D84A4B391D1868FEF7C4FD97E797F8F2
:109F3000283023F0010387F8283090E797F828307D
:109F40009A0748D523F0010387F8283087E7059B57
:109F500007999847049B002B81DB8BE7D3681F6828
:109F6000FFF760FBFFF766FB2A688346904204D345
:109F70008742286014D9002263E7FFF705FFC5F880
:109F800000B0FFF79BFC6AE7FFF7FEFE7EE75B454C
:109F900001D900289AD03068391DFEF78BFD5EE7A5
:109FA000FFF78CFC3268D268D2F80CA00AF10401E9
:109FB00008460391FEF796FD9AF82820039912F0BF
:109FC000040F0CD122F001028AF828205046DAF85A
:109FD0002030984743E7384600F0ACF93FE7DAF81D
:109FE0001800CAF810A03A185A45CAF8042003D934
:109FF0003068FEF75FFDE9E7ABEB070B58451AD871
:10A0000000233A46504619460093FFF787FE002882
:10A01000DCD14FF0500383F31188BFF36F8FBFF390
:10A020004F8FFEE74FF0500383F31188BFF36F8F1C
:10A03000BFF34F8FFEE7054B1868FEF73BFDC5E702
:10A0400094090020840900208C0900209009002038
:10A0500008B54FF0E0231B69FFF7A4FD012800D1EC
:10A0600008BDBDE8084000F055BA00BFEFF3058316
:10A070002BB9064B186828B901221A6070476FF097
:10A08000050070474FF0FF30704700BF00130020FD
:10A0900010B5EFF3058474B9084B1A68012A07D18B
:10A0A00002220749CC771A60FFF76CFA204610BDF0
:10A0B0004FF0FF3010BD6FF0050010BD0013002001
:10A0C00000ED00E0F0B5002587B014460595EFF3EC
:10A0D000058212B1002007B0F0BD0028FAD00CB301
:10A0E000A569DDB918256368DB07F3D4636933B369
:10A0F0009A08A668D4F800C0E76816B3B7F5D07F11
:10A10000E8D32469002CE5D0002BE3D00B46CDE941
:10A11000014661460095FFF7C9F9DCE76E1E372E50
:10A12000E1D9D7E7802218250B46214605AC0095DA
:10A130000194FFF7F7F90128CCD10598CBE78022ED
:10A14000D7E7002FC6D12369002BC3D1644692B252
:10A15000EAE700BFEFF305823AB908B508B9002075
:10A1600008BDFFF7BBFB002008BD6FF0050070477E
:10A17000802330B4034D044C05600C60136030BC88
:10A18000704700BF60110020600F00204FF4807303
:10A1900030B4034D034C05600C60136030BC704755
:10A1A000C00D0020C009002010B4144B1A461B68D3
:10A1B0008342FBD35468416802EB040C604511D024
:10A1C0004418A34205D00360824218BF106010BC3F
:10A1D00070470B4C2468A342F5D018CB2144036090
:10A1E0004160F1E72144501883425160EFD10448A7
:10A1F00000688342EBD01046EFE700BF1C1300203D
:10A20000181300202DE9F041424E0446FFF70AFAE8
:10A210003368002B5FD0404B1D682C4230D17CB39B
:10A2200004F1080160071CBF21F00701083139B3B0
:10A23000DFF8E880D8F800708F4221D3384B1846F9
:10A240001C6803E0236823B120461C4662688A42EA
:10A25000F8D33368A34213D0236806680360531A07
:10A26000102B06F1080618D96018420710D04FF0DD
:10A27000500383F31188BFF36F8FBFF34F8FFEE757
:10A28000FFF71CFB002601F0EFFB3046BDE8F08134
:10A2900043606160FFF788FF6268224BBF1A19684C
:10A2A0002A438F424FF0000162601F4A38BF1F608F
:10A2B0001368216001331360C8F80070FFF7FEFADD
:10A2C0007307E2D04FF0500383F31188BFF36F8F11
:10A2D000BFF34F8FFEE7154B00205D071CBF073310
